{
  "contractName": "Marethon",
  "abi": [
    {
      "constant": false,
      "inputs": [],
      "name": "renounceOwnership",
      "outputs": [],
      "payable": false,
      "stateMutability": "nonpayable",
      "type": "function"
    },
    {
      "constant": true,
      "inputs": [],
      "name": "owner",
      "outputs": [
        {
          "name": "",
          "type": "address"
        }
      ],
      "payable": false,
      "stateMutability": "view",
      "type": "function"
    },
    {
      "constant": true,
      "inputs": [],
      "name": "isOwner",
      "outputs": [
        {
          "name": "",
          "type": "bool"
        }
      ],
      "payable": false,
      "stateMutability": "view",
      "type": "function"
    },
    {
      "constant": false,
      "inputs": [
        {
          "name": "newOwner",
          "type": "address"
        }
      ],
      "name": "transferOwnership",
      "outputs": [],
      "payable": false,
      "stateMutability": "nonpayable",
      "type": "function"
    },
    {
      "inputs": [],
      "payable": false,
      "stateMutability": "nonpayable",
      "type": "constructor"
    },
    {
      "anonymous": false,
      "inputs": [
        {
          "indexed": true,
          "name": "round",
          "type": "uint256"
        },
        {
          "indexed": true,
          "name": "tagNumber",
          "type": "uint256"
        },
        {
          "indexed": true,
          "name": "user",
          "type": "address"
        },
        {
          "indexed": false,
          "name": "payment",
          "type": "uint256"
        },
        {
          "indexed": false,
          "name": "tagName",
          "type": "bytes32"
        },
        {
          "indexed": false,
          "name": "affAddr",
          "type": "address"
        },
        {
          "indexed": false,
          "name": "finishTime",
          "type": "uint256"
        }
      ],
      "name": "onRegisterFromWal",
      "type": "event"
    },
    {
      "anonymous": false,
      "inputs": [
        {
          "indexed": true,
          "name": "round",
          "type": "uint256"
        },
        {
          "indexed": true,
          "name": "tagNumber",
          "type": "uint256"
        },
        {
          "indexed": true,
          "name": "user",
          "type": "address"
        },
        {
          "indexed": false,
          "name": "payment",
          "type": "uint256"
        },
        {
          "indexed": false,
          "name": "tagName",
          "type": "bytes32"
        },
        {
          "indexed": false,
          "name": "affAddr",
          "type": "address"
        },
        {
          "indexed": false,
          "name": "finishTime",
          "type": "uint256"
        }
      ],
      "name": "onRegisterFromBal",
      "type": "event"
    },
    {
      "anonymous": false,
      "inputs": [
        {
          "indexed": true,
          "name": "round",
          "type": "uint256"
        },
        {
          "indexed": true,
          "name": "tagNumber",
          "type": "uint256"
        },
        {
          "indexed": true,
          "name": "finishTime",
          "type": "uint256"
        }
      ],
      "name": "onUpdateScore",
      "type": "event"
    },
    {
      "anonymous": false,
      "inputs": [
        {
          "indexed": true,
          "name": "user",
          "type": "address"
        },
        {
          "indexed": true,
          "name": "name",
          "type": "bytes32"
        },
        {
          "indexed": false,
          "name": "payment",
          "type": "uint256"
        },
        {
          "indexed": false,
          "name": "affAddr",
          "type": "address"
        }
      ],
      "name": "onReserveNameFromWal",
      "type": "event"
    },
    {
      "anonymous": false,
      "inputs": [
        {
          "indexed": true,
          "name": "user",
          "type": "address"
        },
        {
          "indexed": true,
          "name": "name",
          "type": "bytes32"
        },
        {
          "indexed": false,
          "name": "payment",
          "type": "uint256"
        },
        {
          "indexed": false,
          "name": "affAddr",
          "type": "address"
        }
      ],
      "name": "onReserveNameFromBal",
      "type": "event"
    },
    {
      "anonymous": false,
      "inputs": [
        {
          "indexed": true,
          "name": "round",
          "type": "uint256"
        },
        {
          "indexed": true,
          "name": "weapon",
          "type": "uint256"
        },
        {
          "indexed": true,
          "name": "user",
          "type": "address"
        },
        {
          "indexed": false,
          "name": "payment",
          "type": "uint256"
        },
        {
          "indexed": false,
          "name": "peelPrice",
          "type": "uint256"
        },
        {
          "indexed": false,
          "name": "affAddr",
          "type": "address"
        },
        {
          "indexed": false,
          "name": "nWeapon",
          "type": "uint256"
        }
      ],
      "name": "onBuyWeaponFromWal",
      "type": "event"
    },
    {
      "anonymous": false,
      "inputs": [
        {
          "indexed": true,
          "name": "round",
          "type": "uint256"
        },
        {
          "indexed": true,
          "name": "weapon",
          "type": "uint256"
        },
        {
          "indexed": true,
          "name": "user",
          "type": "address"
        },
        {
          "indexed": false,
          "name": "payment",
          "type": "uint256"
        },
        {
          "indexed": false,
          "name": "peelPrice",
          "type": "uint256"
        },
        {
          "indexed": false,
          "name": "affAddr",
          "type": "address"
        },
        {
          "indexed": false,
          "name": "nWeapon",
          "type": "uint256"
        }
      ],
      "name": "onBuyWeaponFromBal",
      "type": "event"
    },
    {
      "anonymous": false,
      "inputs": [
        {
          "indexed": true,
          "name": "round",
          "type": "uint256"
        },
        {
          "indexed": true,
          "name": "tagNumber",
          "type": "uint256"
        },
        {
          "indexed": true,
          "name": "user",
          "type": "address"
        },
        {
          "indexed": false,
          "name": "fromRunner",
          "type": "uint256"
        },
        {
          "indexed": false,
          "name": "nBomb",
          "type": "uint256"
        },
        {
          "indexed": false,
          "name": "nShield",
          "type": "uint256"
        },
        {
          "indexed": false,
          "name": "finishTime",
          "type": "uint256"
        }
      ],
      "name": "onThrowBomb",
      "type": "event"
    },
    {
      "anonymous": false,
      "inputs": [
        {
          "indexed": true,
          "name": "round",
          "type": "uint256"
        },
        {
          "indexed": true,
          "name": "tagNumber",
          "type": "uint256"
        },
        {
          "indexed": true,
          "name": "user",
          "type": "address"
        },
        {
          "indexed": false,
          "name": "fromRunner",
          "type": "uint256"
        },
        {
          "indexed": false,
          "name": "nShield",
          "type": "uint256"
        }
      ],
      "name": "onUnShield",
      "type": "event"
    },
    {
      "anonymous": false,
      "inputs": [
        {
          "indexed": true,
          "name": "round",
          "type": "uint256"
        },
        {
          "indexed": true,
          "name": "tagNumber",
          "type": "uint256"
        },
        {
          "indexed": true,
          "name": "user",
          "type": "address"
        },
        {
          "indexed": false,
          "name": "fromRunner",
          "type": "uint256"
        },
        {
          "indexed": false,
          "name": "nPeel",
          "type": "uint256"
        },
        {
          "indexed": false,
          "name": "finishTime",
          "type": "uint256"
        }
      ],
      "name": "onThrowPeel",
      "type": "event"
    },
    {
      "anonymous": false,
      "inputs": [
        {
          "indexed": true,
          "name": "round",
          "type": "uint256"
        },
        {
          "indexed": true,
          "name": "tagNumber",
          "type": "uint256"
        },
        {
          "indexed": true,
          "name": "user",
          "type": "address"
        },
        {
          "indexed": false,
          "name": "finishTime",
          "type": "uint256"
        }
      ],
      "name": "onEatSpinach",
      "type": "event"
    },
    {
      "anonymous": false,
      "inputs": [
        {
          "indexed": true,
          "name": "round",
          "type": "uint256"
        },
        {
          "indexed": true,
          "name": "tagNumber",
          "type": "uint256"
        },
        {
          "indexed": true,
          "name": "user",
          "type": "address"
        },
        {
          "indexed": false,
          "name": "nShield",
          "type": "uint256"
        }
      ],
      "name": "onPutShield",
      "type": "event"
    },
    {
      "anonymous": false,
      "inputs": [
        {
          "indexed": true,
          "name": "round",
          "type": "uint256"
        },
        {
          "indexed": true,
          "name": "tagNumber",
          "type": "uint256"
        },
        {
          "indexed": true,
          "name": "user",
          "type": "address"
        },
        {
          "indexed": false,
          "name": "share",
          "type": "uint256"
        }
      ],
      "name": "onSetSupportersShare",
      "type": "event"
    },
    {
      "anonymous": false,
      "inputs": [
        {
          "indexed": true,
          "name": "round",
          "type": "uint256"
        },
        {
          "indexed": false,
          "name": "end",
          "type": "uint256"
        },
        {
          "indexed": false,
          "name": "potWon",
          "type": "uint256"
        },
        {
          "indexed": false,
          "name": "winners",
          "type": "uint256[]"
        },
        {
          "indexed": false,
          "name": "nWinners",
          "type": "uint256"
        }
      ],
      "name": "onHasAWinner",
      "type": "event"
    },
    {
      "anonymous": false,
      "inputs": [
        {
          "indexed": false,
          "name": "activeRound",
          "type": "uint256"
        },
        {
          "indexed": false,
          "name": "newRegisterRound",
          "type": "uint256"
        }
      ],
      "name": "onGameStart",
      "type": "event"
    },
    {
      "anonymous": false,
      "inputs": [
        {
          "indexed": true,
          "name": "round",
          "type": "uint256"
        },
        {
          "indexed": false,
          "name": "potWon",
          "type": "uint256"
        },
        {
          "indexed": false,
          "name": "potTransferred",
          "type": "uint256"
        },
        {
          "indexed": false,
          "name": "nextStart",
          "type": "uint256"
        }
      ],
      "name": "onCloseRound",
      "type": "event"
    },
    {
      "anonymous": false,
      "inputs": [
        {
          "indexed": true,
          "name": "round",
          "type": "uint256"
        },
        {
          "indexed": false,
          "name": "potTransferred",
          "type": "uint256"
        },
        {
          "indexed": false,
          "name": "nextStart",
          "type": "uint256"
        }
      ],
      "name": "onQuickCloseRound",
      "type": "event"
    },
    {
      "anonymous": false,
      "inputs": [
        {
          "indexed": false,
          "name": "round",
          "type": "uint256"
        },
        {
          "indexed": false,
          "name": "winner",
          "type": "uint256"
        },
        {
          "indexed": false,
          "name": "supporter",
          "type": "address"
        },
        {
          "indexed": false,
          "name": "ethClaim",
          "type": "uint256"
        },
        {
          "indexed": false,
          "name": "nShares",
          "type": "uint256"
        },
        {
          "indexed": false,
          "name": "supportersShare",
          "type": "uint256"
        },
        {
          "indexed": false,
          "name": "potWon",
          "type": "uint256"
        },
        {
          "indexed": false,
          "name": "nWinners",
          "type": "uint256"
        }
      ],
      "name": "onClaimSupporterWinning",
      "type": "event"
    },
    {
      "anonymous": false,
      "inputs": [
        {
          "indexed": true,
          "name": "user",
          "type": "address"
        },
        {
          "indexed": false,
          "name": "amount",
          "type": "uint256"
        }
      ],
      "name": "onWithdraw",
      "type": "event"
    },
    {
      "anonymous": false,
      "inputs": [
        {
          "indexed": true,
          "name": "round",
          "type": "uint256"
        },
        {
          "indexed": true,
          "name": "user",
          "type": "address"
        },
        {
          "indexed": false,
          "name": "shares2Claim",
          "type": "uint256"
        },
        {
          "indexed": false,
          "name": "ethClaimed",
          "type": "uint256"
        },
        {
          "indexed": false,
          "name": "totShares",
          "type": "uint256"
        },
        {
          "indexed": false,
          "name": "sharesClaimed",
          "type": "uint256"
        }
      ],
      "name": "onClaimShares",
      "type": "event"
    },
    {
      "anonymous": false,
      "inputs": [
        {
          "indexed": true,
          "name": "user",
          "type": "address"
        },
        {
          "indexed": false,
          "name": "amount",
          "type": "uint256"
        }
      ],
      "name": "onAdminWithdraw",
      "type": "event"
    },
    {
      "anonymous": false,
      "inputs": [
        {
          "indexed": true,
          "name": "previousOwner",
          "type": "address"
        }
      ],
      "name": "OwnershipRenounced",
      "type": "event"
    },
    {
      "anonymous": false,
      "inputs": [
        {
          "indexed": true,
          "name": "previousOwner",
          "type": "address"
        },
        {
          "indexed": true,
          "name": "newOwner",
          "type": "address"
        }
      ],
      "name": "OwnershipTransferred",
      "type": "event"
    },
    {
      "constant": true,
      "inputs": [
        {
          "name": "user",
          "type": "address"
        }
      ],
      "name": "getUserInfo",
      "outputs": [
        {
          "name": "ethBalance",
          "type": "uint256"
        },
        {
          "name": "affAddr",
          "type": "address"
        },
        {
          "name": "nRounds",
          "type": "uint256"
        },
        {
          "name": "nResTags",
          "type": "uint256"
        }
      ],
      "payable": false,
      "stateMutability": "view",
      "type": "function"
    },
    {
      "constant": true,
      "inputs": [
        {
          "name": "round",
          "type": "uint256"
        }
      ],
      "name": "getGameInfo",
      "outputs": [
        {
          "name": "gameInfo",
          "type": "uint256[20]"
        }
      ],
      "payable": false,
      "stateMutability": "view",
      "type": "function"
    },
    {
      "constant": false,
      "inputs": [
        {
          "name": "tagName",
          "type": "string"
        },
        {
          "name": "affName",
          "type": "string"
        },
        {
          "name": "affAddr",
          "type": "address"
        }
      ],
      "name": "registerFromWal",
      "outputs": [],
      "payable": true,
      "stateMutability": "payable",
      "type": "function"
    },
    {
      "constant": false,
      "inputs": [
        {
          "name": "tagName",
          "type": "string"
        },
        {
          "name": "affName",
          "type": "string"
        },
        {
          "name": "affAddr",
          "type": "address"
        }
      ],
      "name": "registerFromBal",
      "outputs": [],
      "payable": false,
      "stateMutability": "nonpayable",
      "type": "function"
    },
    {
      "constant": false,
      "inputs": [
        {
          "name": "tagName",
          "type": "string"
        },
        {
          "name": "affName",
          "type": "string"
        },
        {
          "name": "affAddr",
          "type": "address"
        }
      ],
      "name": "reserveNameFromWal",
      "outputs": [],
      "payable": true,
      "stateMutability": "payable",
      "type": "function"
    },
    {
      "constant": false,
      "inputs": [
        {
          "name": "tagName",
          "type": "string"
        },
        {
          "name": "affName",
          "type": "string"
        },
        {
          "name": "affAddr",
          "type": "address"
        }
      ],
      "name": "reserveNameFromBal",
      "outputs": [],
      "payable": false,
      "stateMutability": "nonpayable",
      "type": "function"
    },
    {
      "constant": false,
      "inputs": [
        {
          "name": "round",
          "type": "uint256"
        },
        {
          "name": "w",
          "type": "uint256"
        },
        {
          "name": "affName",
          "type": "string"
        },
        {
          "name": "affAddr",
          "type": "address"
        }
      ],
      "name": "buyWeaponFromWal",
      "outputs": [],
      "payable": true,
      "stateMutability": "payable",
      "type": "function"
    },
    {
      "constant": false,
      "inputs": [
        {
          "name": "round",
          "type": "uint256"
        },
        {
          "name": "w",
          "type": "uint256"
        },
        {
          "name": "payment",
          "type": "uint256"
        },
        {
          "name": "affName",
          "type": "string"
        },
        {
          "name": "affAddr",
          "type": "address"
        }
      ],
      "name": "buyWeaponFromBal",
      "outputs": [],
      "payable": false,
      "stateMutability": "nonpayable",
      "type": "function"
    },
    {
      "constant": false,
      "inputs": [
        {
          "name": "tagNumber",
          "type": "uint256"
        },
        {
          "name": "fromRunner",
          "type": "uint256"
        },
        {
          "name": "nBomb",
          "type": "uint256"
        }
      ],
      "name": "throwBomb",
      "outputs": [],
      "payable": false,
      "stateMutability": "nonpayable",
      "type": "function"
    },
    {
      "constant": false,
      "inputs": [
        {
          "name": "tagNumber",
          "type": "uint256"
        },
        {
          "name": "fromRunner",
          "type": "uint256"
        }
      ],
      "name": "unShield",
      "outputs": [],
      "payable": false,
      "stateMutability": "nonpayable",
      "type": "function"
    },
    {
      "constant": false,
      "inputs": [
        {
          "name": "tagNumber",
          "type": "uint256"
        },
        {
          "name": "fromRunner",
          "type": "uint256"
        },
        {
          "name": "nPeel",
          "type": "uint256"
        }
      ],
      "name": "throwPeel",
      "outputs": [],
      "payable": false,
      "stateMutability": "nonpayable",
      "type": "function"
    },
    {
      "constant": false,
      "inputs": [
        {
          "name": "tagNumber",
          "type": "uint256"
        }
      ],
      "name": "eatSpinach",
      "outputs": [],
      "payable": false,
      "stateMutability": "nonpayable",
      "type": "function"
    },
    {
      "constant": false,
      "inputs": [
        {
          "name": "tagNumber",
          "type": "uint256"
        },
        {
          "name": "nShield",
          "type": "uint256"
        }
      ],
      "name": "putShield",
      "outputs": [],
      "payable": false,
      "stateMutability": "nonpayable",
      "type": "function"
    },
    {
      "constant": false,
      "inputs": [
        {
          "name": "tagNumber",
          "type": "uint256"
        },
        {
          "name": "share",
          "type": "uint256"
        }
      ],
      "name": "setSupportersShare",
      "outputs": [],
      "payable": false,
      "stateMutability": "nonpayable",
      "type": "function"
    },
    {
      "constant": false,
      "inputs": [
        {
          "name": "round",
          "type": "uint256"
        },
        {
          "name": "tagNumber",
          "type": "uint256"
        }
      ],
      "name": "claimSupporterWinning",
      "outputs": [],
      "payable": false,
      "stateMutability": "nonpayable",
      "type": "function"
    },
    {
      "constant": true,
      "inputs": [
        {
          "name": "round",
          "type": "uint256"
        },
        {
          "name": "nRunners",
          "type": "uint256"
        },
        {
          "name": "lastPage",
          "type": "bool"
        }
      ],
      "name": "get1stLastPage",
      "outputs": [
        {
          "name": "runners",
          "type": "uint256[]"
        },
        {
          "name": "retCode",
          "type": "uint256"
        }
      ],
      "payable": false,
      "stateMutability": "view",
      "type": "function"
    },
    {
      "constant": true,
      "inputs": [
        {
          "name": "round",
          "type": "uint256"
        },
        {
          "name": "startFrom",
          "type": "uint256"
        },
        {
          "name": "nRunners",
          "type": "uint256"
        },
        {
          "name": "nextPage",
          "type": "bool"
        }
      ],
      "name": "getPrevNextPage",
      "outputs": [
        {
          "name": "runners",
          "type": "uint256[]"
        },
        {
          "name": "retCode",
          "type": "uint256"
        }
      ],
      "payable": false,
      "stateMutability": "view",
      "type": "function"
    },
    {
      "constant": true,
      "inputs": [
        {
          "name": "round",
          "type": "uint256"
        },
        {
          "name": "tagNumber",
          "type": "uint256"
        }
      ],
      "name": "getRunnerInfo",
      "outputs": [
        {
          "name": "owner",
          "type": "address"
        },
        {
          "name": "tagName",
          "type": "bytes32"
        },
        {
          "name": "runData",
          "type": "uint256[10]"
        },
        {
          "name": "onSpinach",
          "type": "bool"
        },
        {
          "name": "retCode",
          "type": "uint256"
        }
      ],
      "payable": false,
      "stateMutability": "view",
      "type": "function"
    },
    {
      "constant": true,
      "inputs": [
        {
          "name": "round",
          "type": "uint256"
        },
        {
          "name": "index",
          "type": "uint256"
        }
      ],
      "name": "getWinners",
      "outputs": [
        {
          "name": "winners",
          "type": "uint256[5]"
        },
        {
          "name": "nWinners",
          "type": "uint256"
        },
        {
          "name": "retCode",
          "type": "uint256"
        }
      ],
      "payable": false,
      "stateMutability": "view",
      "type": "function"
    },
    {
      "constant": true,
      "inputs": [
        {
          "name": "round",
          "type": "uint256"
        },
        {
          "name": "tagNumber",
          "type": "uint256"
        },
        {
          "name": "index",
          "type": "uint256"
        }
      ],
      "name": "getSupporters",
      "outputs": [
        {
          "name": "supporters",
          "type": "address[10]"
        },
        {
          "name": "nSupporters",
          "type": "uint256"
        },
        {
          "name": "totShares",
          "type": "uint256"
        },
        {
          "name": "retCode",
          "type": "uint256"
        }
      ],
      "payable": false,
      "stateMutability": "view",
      "type": "function"
    },
    {
      "constant": true,
      "inputs": [
        {
          "name": "round",
          "type": "uint256"
        },
        {
          "name": "tagNumber",
          "type": "uint256"
        },
        {
          "name": "index",
          "type": "uint256"
        }
      ],
      "name": "getEnemies",
      "outputs": [
        {
          "name": "enemies",
          "type": "uint256[3][10]"
        },
        {
          "name": "nEnemies",
          "type": "uint256"
        },
        {
          "name": "retCode",
          "type": "uint256"
        }
      ],
      "payable": false,
      "stateMutability": "view",
      "type": "function"
    },
    {
      "constant": true,
      "inputs": [
        {
          "name": "user",
          "type": "address"
        },
        {
          "name": "round",
          "type": "uint256"
        }
      ],
      "name": "getUserRoundInfo",
      "outputs": [
        {
          "name": "shares",
          "type": "uint256"
        },
        {
          "name": "sharesClaimed",
          "type": "uint256"
        },
        {
          "name": "nBomb",
          "type": "uint256"
        },
        {
          "name": "nPeel",
          "type": "uint256"
        },
        {
          "name": "nSpinach",
          "type": "uint256"
        },
        {
          "name": "nShield",
          "type": "uint256"
        },
        {
          "name": "retCode",
          "type": "uint256"
        }
      ],
      "payable": false,
      "stateMutability": "view",
      "type": "function"
    },
    {
      "constant": true,
      "inputs": [
        {
          "name": "user",
          "type": "address"
        },
        {
          "name": "index",
          "type": "uint256"
        }
      ],
      "name": "getReservedNames",
      "outputs": [
        {
          "name": "names",
          "type": "bytes32[10]"
        },
        {
          "name": "nNames",
          "type": "uint256"
        },
        {
          "name": "retCode",
          "type": "uint256"
        }
      ],
      "payable": false,
      "stateMutability": "view",
      "type": "function"
    },
    {
      "constant": true,
      "inputs": [
        {
          "name": "user",
          "type": "address"
        },
        {
          "name": "index",
          "type": "uint256"
        }
      ],
      "name": "getRounds",
      "outputs": [
        {
          "name": "rounds",
          "type": "uint256[10]"
        },
        {
          "name": "nRounds",
          "type": "uint256"
        },
        {
          "name": "retCode",
          "type": "uint256"
        }
      ],
      "payable": false,
      "stateMutability": "view",
      "type": "function"
    },
    {
      "constant": true,
      "inputs": [
        {
          "name": "round",
          "type": "uint256"
        },
        {
          "name": "user",
          "type": "address"
        },
        {
          "name": "index",
          "type": "uint256"
        }
      ],
      "name": "getRunners",
      "outputs": [
        {
          "name": "runners",
          "type": "uint256[10]"
        },
        {
          "name": "nRunners",
          "type": "uint256"
        },
        {
          "name": "retCode",
          "type": "uint256"
        }
      ],
      "payable": false,
      "stateMutability": "view",
      "type": "function"
    },
    {
      "constant": true,
      "inputs": [
        {
          "name": "round",
          "type": "uint256"
        },
        {
          "name": "user",
          "type": "address"
        },
        {
          "name": "index",
          "type": "uint256"
        }
      ],
      "name": "getSupportedRunners",
      "outputs": [
        {
          "name": "runners",
          "type": "uint256[10]"
        },
        {
          "name": "nRunners",
          "type": "uint256"
        },
        {
          "name": "retCode",
          "type": "uint256"
        }
      ],
      "payable": false,
      "stateMutability": "view",
      "type": "function"
    },
    {
      "constant": false,
      "inputs": [
        {
          "name": "amount",
          "type": "uint256"
        },
        {
          "name": "all",
          "type": "bool"
        }
      ],
      "name": "withdraw",
      "outputs": [],
      "payable": false,
      "stateMutability": "nonpayable",
      "type": "function"
    },
    {
      "constant": false,
      "inputs": [
        {
          "name": "round",
          "type": "uint256"
        },
        {
          "name": "shares2Claim",
          "type": "uint256"
        },
        {
          "name": "all",
          "type": "bool"
        }
      ],
      "name": "claimShares",
      "outputs": [],
      "payable": false,
      "stateMutability": "nonpayable",
      "type": "function"
    },
    {
      "constant": false,
      "inputs": [
        {
          "name": "amount",
          "type": "uint256"
        },
        {
          "name": "all",
          "type": "bool"
        }
      ],
      "name": "adminWithdraw",
      "outputs": [],
      "payable": false,
      "stateMutability": "nonpayable",
      "type": "function"
    }
  ],
  "bytecode": "0x60806040523480156200001157600080fd5b5060008054600160a060020a0319163317815560018080558082527fb39221ace053465ec3453ce2b36430bd138b997ecea25c1043da0c366812b828556b04fc97ac37696a13f60000007fb39221ace053465ec3453ce2b36430bd138b997ecea25c1043da0c366812b82c5560096020526040517fdd346b1000000000000000000000000000000000000000000000000000000000815273__SkipListBoard_________________________9163dd346b1091620000fe917f92e85d02570a8092d09a6e3a57665bc3815a2699a4074001bf1ccabf660f5a3691600891640ba43b7400916004016200019e565b60006040518083038186803b1580156200011757600080fd5b505af41580156200012c573d6000803e3d6000fd5b50505050620001496200016f640100000000026401000000009004565b60058054600160a060020a031916600160a060020a0392909216919091179055620001ff565b600054600160a060020a031690565b6200018981620001e4565b82525050565b6200018981620001ec565b9052565b60808101620001ae82876200019a565b620001bd60208301866200018f565b620001cc60408301856200018f565b620001db60608301846200017e565b95945050505050565b151590565b90565b6000620001f982620001e9565b92915050565b613f18806200020f6000396000f3006080604052600436106101a05763ffffffff7c010000000000000000000000000000000000000000000000000000000060003504166301e59edf81146101a557806303423697146101dd5780631135f14d146101ff578063162ffd371461022e5780631d03be491461024e5780631d3fcc921461026e57806328fd8fc41461028e57806338d07436146102bd5780633fad25d2146102dd578063419eb2c91461030c57806347cccb6b1461032c57806347e1d5501461034c57806349525c23146103795780634e15df89146103ac57806357a040cb146103dc5780636386c1c71461040d5780636dd3d2911461043d578063715018a61461046b57806378360a53146104805780637b0ecff2146104a057806384679162146104c05780638da5cb5b146104e05780638f32d59b14610502578063952215fd14610524578063a11c6eac14610544578063a91dd0f614610564578063aa7e591714610577578063c001663214610597578063e011216f146105b7578063e06c61af146105d7578063ed2917cd146105f7578063f2fde38b1461060a578063f75a8da31461062a575b600080fd5b3480156101b157600080fd5b506101c56101c03660046133c5565b61063d565b6040516101d4939291906138f9565b60405180910390f35b3480156101e957600080fd5b506101fd6101f83660046131d5565b610709565b005b34801561020b57600080fd5b5061021f61021a366004613283565b6107c1565b6040516101d49392919061394f565b34801561023a57600080fd5b506101fd6102493660046132f6565b610886565b34801561025a57600080fd5b506101fd6102693660046132f6565b610994565b34801561027a57600080fd5b506101fd6102893660046131d5565b610a45565b34801561029a57600080fd5b506102ae6102a93660046132f6565b610aec565b6040516101d49392919061396d565b3480156102c957600080fd5b506101fd6102d83660046132c6565b610bb3565b3480156102e957600080fd5b506102fd6102f8366004612ff4565b610c98565b6040516101d493929190613924565b34801561031857600080fd5b5061021f610327366004613283565b610d5b565b34801561033857600080fd5b506101fd610347366004613315565b610dcf565b34801561035857600080fd5b5061036c610367366004613247565b610e77565b6040516101d4919061395e565b34801561038557600080fd5b50610399610394366004612ff4565b610f7f565b6040516101d49796959493929190613da5565b3480156103b857600080fd5b506103cc6103c73660046133c5565b61106a565b6040516101d494939291906138b7565b3480156103e857600080fd5b506103fc6103f73660046132f6565b61113b565b6040516101d4959493929190613868565b34801561041957600080fd5b5061042d610428366004612f56565b61120c565b6040516101d49493929190613d6e565b34801561044957600080fd5b5061045d6104583660046133f7565b61123e565b6040516101d4929190613995565b34801561047757600080fd5b506101fd611313565b34801561048c57600080fd5b506101fd61049b3660046132c6565b61137b565b3480156104ac57600080fd5b506101fd6104bb3660046133c5565b611439565b3480156104cc57600080fd5b506101fd6104db366004613247565b61156c565b3480156104ec57600080fd5b506104f561166a565b6040516101d49190613854565b34801561050e57600080fd5b50610517611679565b6040516101d491906139b5565b34801561053057600080fd5b506101fd61053f3660046133c5565b61168a565b34801561055057600080fd5b5061045d61055f366004613315565b611753565b6101fd610572366004613358565b611825565b34801561058357600080fd5b506101fd6105923660046132f6565b611970565b3480156105a357600080fd5b5061021f6105b2366004612ff4565b611a1d565b3480156105c357600080fd5b506101fd6105d236600461344c565b611ae0565b3480156105e357600080fd5b506101fd6105f23660046132f6565b611c2d565b6101fd6106053660046131d5565b611cdf565b34801561061657600080fd5b506101fd610625366004612f56565b611d87565b6101fd6106383660046131d5565b611da6565b610645612b10565b60008481526007602052604080822090517f42b63905000000000000000000000000000000000000000000000000000000008152829173__MarethonCore__________________________916342b63905916106a9918a908a908a90600401613c77565b6104006040518083038186803b1580156106c257600080fd5b505af41580156106d6573d6000803e3d6000fd5b505050506040513d601f19601f820116820180604052506106fa9190810190613093565b92509250925093509350939050565b6107138282611e2c565b33600090815260086020526040808220600160a060020a038416835281832091517f1b12afb700000000000000000000000000000000000000000000000000000000815293945073__MarethonCore__________________________93631b12afb79361078c9389929091889160019190600401613ce1565b60006040518083038186803b1580156107a457600080fd5b505af41580156107b8573d6000803e3d6000fd5b50505050505050565b6107c9612b3f565b600160a060020a03831660009081526008602052604080822090517f1a08f7f3000000000000000000000000000000000000000000000000000000008152829173__MarethonCore__________________________91631a08f7f391610835918a908990600401613c4f565b6101806040518083038186803b15801561084e57600080fd5b505af4158015610862573d6000803e3d6000fd5b505050506040513d601f19601f820116820180604052506106fa9190810190613129565b600082151561089457600080fd5b600182101580156108a6575060638211155b15156108b157600080fd5b6108b9611f73565b600254600081815260076020908152604080832060099092529182902091517f1569383b00000000000000000000000000000000000000000000000000000000815273__MarethonCore__________________________93631569383b9361092b939290919089908990600401613a05565b60206040518083038186803b15801561094357600080fd5b505af4158015610957573d6000803e3d6000fd5b505050506040513d601f19601f8201168201806040525061097b9190810190613265565b905061057a81141561098f5761098f6120a7565b505050565b60008281526007602090815260408083203384526008835281842086855260099093529281902090517f316c2e0d00000000000000000000000000000000000000000000000000000000815273__MarethonCore__________________________9363316c2e0d93610a1193919290919088908890600401613aa1565b60006040518083038186803b158015610a2957600080fd5b505af4158015610a3d573d6000803e3d6000fd5b505050505050565b610a4f8282611e2c565b9050610a59611f73565b60018054600081815260076020908152604080832033845260088352818420600160a060020a0388168552828520958552600990935281842091517f3b736f6800000000000000000000000000000000000000000000000000000000815273__MarethonCore__________________________96633b736f689661078c96939594909390928c928b929091600401613b80565b610af4612b5f565b60008381526007602052604080822090517f09713099000000000000000000000000000000000000000000000000000000008152829173__MarethonCore__________________________91630971309991610b569189908990600401613c4f565b60e06040518083038186803b158015610b6e57600080fd5b505af4158015610b82573d6000803e3d6000fd5b505050506040513d601f19601f82011682018060405250610ba6919081019061314b565b9250925092509250925092565b8015610bcc573360009081526008602052604090205491505b811515610bd857600080fd5b33600090815260086020526040902054821115610bf457600080fd5b33600090815260086020526040902054610c14908363ffffffff61250d16565b33600081815260086020526040808220939093559151909184156108fc02918591818181858888f19350505050158015610c52573d6000803e3d6000fd5b5033600160a060020a03167fccad973dcd043c7d680389db4378bd6b9775db7124092e9e0422c9e46d7985dc83604051610c8c9190613d60565b60405180910390a25050565b610ca0612b3f565b600160a060020a03831660009081526008602052604080822090517f9ee797c2000000000000000000000000000000000000000000000000000000008152829173__MarethonCore__________________________91639ee797c291610d0a918890600401613d45565b6101806040518083038186803b158015610d2357600080fd5b505af4158015610d37573d6000803e3d6000fd5b505050506040513d601f19601f82011682018060405250610ba691908101906130e3565b610d63612b3f565b600160a060020a03831660009081526008602052604080822090517f446164c9000000000000000000000000000000000000000000000000000000008152829173__MarethonCore__________________________9163446164c991610835918a908990600401613c4f565b8015610e0557336000908152600860209081526040808320868452600301909152902060018101549054610e029161250d565b91505b33600090815260086020908152604080832086845260079092529182902091517f7c852bdb00000000000000000000000000000000000000000000000000000000815273__MarethonCore__________________________92637c852bdb9261078c9290919088908890600401613d2a565b610e7f612b7e565b600082815260076020818152604080842080548652600180820154878501526002808301548885015260038084015460608a0152600480850154670de0b6b3a76400009081900460808c01526005808701549190910460a08c0152600686015460c08c0152600e86015460e08c0152978501546101008b015260088501546101208b01526009808601546101408c0152600a8601546101608c0152600b909501546101808b01528a8952848752948820808301546101a08b01529990975291909352958401546101c086015290546101e08501529354610200840152905461022083015291546102408201529054600160a060020a031661026082015290565b600160a060020a038216600090815260086020908152604080832084845260079092528083205490517ff19a419900000000000000000000000000000000000000000000000000000000815283928392839283928392839273__MarethonCore__________________________9263f19a419992611002928d9190600401613c4f565b60e06040518083038186803b15801561101a57600080fd5b505af415801561102e573d6000803e3d6000fd5b505050506040513d601f19601f8201168201806040525061105291908101906134cc565b959f949e50929c50909a509850965090945092505050565b611072612b3f565b60008481526007602052604080822090517f83593b440000000000000000000000000000000000000000000000000000000081528291829173__MarethonCore__________________________916383593b44916110d991908b908b908b90600401613c77565b6101a06040518083038186803b1580156110f257600080fd5b505af4158015611106573d6000803e3d6000fd5b505050506040513d601f19601f8201168201806040525061112a919081019061302e565b935093509350935093509350935093565b600080611146612b3f565b60008581526007602052604080822090517fc3cc777e000000000000000000000000000000000000000000000000000000008152829173__MarethonCore__________________________9163c3cc777e916111a8918b908b90600401613c4f565b6101c06040518083038186803b1580156111c157600080fd5b505af41580156111d5573d6000803e3d6000fd5b505050506040513d601f19601f820116820180604052506111f99190810190612f7c565b939b929a50909850965090945092505050565b600160a060020a0390811660009081526008602052604090208054600182015460028301546004909301549194931692565b6000848152600760209081526040808320600990925280832090517fb7d99df00000000000000000000000000000000000000000000000000000000081526060939273__MarethonCore__________________________9263b7d99df0926112b29291908b908b908b908b90600401613a47565b60006040518083038186803b1580156112ca57600080fd5b505af41580156112de573d6000803e3d6000fd5b505050506040513d6000823e601f3d908101601f19168201604052611306919081019061318e565b9150915094509492505050565b61131b611679565b151561132657600080fd5b60008054604051600160a060020a03909116917ff8df31144d9c2f0f6b59d69b8b98abd5459d07f2742c4df920b25aae33c6482091a26000805473ffffffffffffffffffffffffffffffffffffffff19169055565b611383611679565b151561138e57600080fd5b801561139a5760035491505b60035415156113a857600080fd5b8115156113b457600080fd5b6003548211156113c357600080fd5b604051339083156108fc029084906000818181858888f193505050501580156113f0573d6000803e3d6000fd5b50600354611404908363ffffffff61250d16565b60035560405133907f388453e126433184f664047185041203771e0b286887992e16a23a94aa30280f90610c8c908590613d60565b6000831580159061144957508215155b151561145457600080fd5b670de0b6b3a764000082101561146957600080fd5b8284141561147657600080fd5b61147e611f73565b60025460008181526007602090815260408083203384526008835281842085855260099093529281902090517f2eba08ee00000000000000000000000000000000000000000000000000000000815273__MarethonCore__________________________94632eba08ee9461150294909390929091908b908b908b90600401613b18565b60206040518083038186803b15801561151a57600080fd5b505af415801561152e573d6000803e3d6000fd5b505050506040513d601f19601f820116820180604052506115529190810190613265565b905061057a811415611566576115666120a7565b50505050565b600081151561157a57600080fd5b611582611f73565b60025460008181526007602090815260408083203384526008835281842085855260099093529281902090517fa04ee71d00000000000000000000000000000000000000000000000000000000815273__MarethonCore__________________________9463a04ee71d9461160294909390929091908990600401613aa1565b60206040518083038186803b15801561161a57600080fd5b505af415801561162e573d6000803e3d6000fd5b505050506040513d601f19601f820116820180604052506116529190810190613265565b905061057a811415611666576116666120a7565b5050565b600054600160a060020a031690565b600054600160a060020a0316331490565b6000831580159061169a57508215155b15156116a557600080fd5b670de0b6b3a76400008210156116ba57600080fd5b828414156116c757600080fd5b6116cf611f73565b60025460008181526007602090815260408083203384526008835281842085855260099093529281902090517fa095721c00000000000000000000000000000000000000000000000000000000815273__MarethonCore__________________________9463a095721c9461150294909390929091908b908b908b90600401613b18565b6000838152600760209081526040808320600990925280832090517f3b578ce10000000000000000000000000000000000000000000000000000000081526060939273__MarethonCore__________________________92633b578ce1926117c59291908a908a908a906004016139c3565b60006040518083038186803b1580156117dd57600080fd5b505af41580156117f1573d6000803e3d6000fd5b505050506040513d6000823e601f3d908101601f19168201604052611819919081019061318e565b91509150935093915050565b61182d612b9e565b60006118398484611e2c565b9250611843611f73565b6040805160a08101825287815260208082018890523482840152600160a060020a0386166060830181905260016080840181905260008b815260078452858120338252600885528682209382528682208354835260099095529086902095517f15840fc400000000000000000000000000000000000000000000000000000000815294975073__MarethonCore__________________________956315840fc4956118f5959294938a91600401613bfe565b60206040518083038186803b15801561190d57600080fd5b505af4158015611921573d6000803e3d6000fd5b505050506040513d601f19601f820116820180604052506119459190810190613265565b905061057981141561195e5761195961252b565b610a3d565b61057a811415610a3d57610a3d6120a7565b600082151561197e57600080fd5b670de0b6b3a764000082101561199357600080fd5b61199b611f73565b60025460008181526007602090815260408083203384526008835281842085855260099093529281902090517ffc1804bc00000000000000000000000000000000000000000000000000000000815273__MarethonCore__________________________9463fc1804bc9461092b94909390929091908a908a90600401613ac9565b611a25612b3f565b600160a060020a03831660009081526008602052604080822090517f6e7a8cc2000000000000000000000000000000000000000000000000000000008152829173__MarethonCore__________________________91636e7a8cc291611a8f918890600401613d45565b6101806040518083038186803b158015611aa857600080fd5b505af4158015611abc573d6000803e3d6000fd5b505050506040513d601f19601f82011682018060405250610ba69190810190613129565b611ae8612b9e565b6000611af48484611e2c565b9250611afe611f73565b6040805160a0810182528881526020808201899052818301889052600160a060020a038616606083018190526000608084018190528b8152600783528481203382526008845285822092825285822060018054845260099095529186902095517f15840fc400000000000000000000000000000000000000000000000000000000815294975073__MarethonCore__________________________956315840fc495611bb295929493928a91600401613bfe565b60206040518083038186803b158015611bca57600080fd5b505af4158015611bde573d6000803e3d6000fd5b505050506040513d601f19601f82011682018060405250611c029190810190613265565b9050610579811415611c1b57611c1661252b565b6107b8565b61057a8114156107b8576107b86120a7565b60008215801590611c3d57508115155b1515611c4857600080fd5b81831415611c5557600080fd5b611c5d611f73565b60025460008181526007602090815260408083203384526008835281842085855260099093529281902090517f14d91fa700000000000000000000000000000000000000000000000000000000815273__MarethonCore__________________________946314d91fa79461092b94909390929091908a908a90600401613ac9565b611ce98282611e2c565b9050611cf3611f73565b60018054600081815260076020908152604080832033845260088352818420600160a060020a038816855282852095855260099093529281902090517f3b736f6800000000000000000000000000000000000000000000000000000000815273__MarethonCore__________________________95633b736f689561078c959493909290918b918a91908190600401613b80565b611d8f611679565b1515611d9a57600080fd5b611da3816125e2565b50565b611db08282611e2c565b33600090815260086020526040808220600160a060020a03841683529181902090517f1b12afb700000000000000000000000000000000000000000000000000000000815292935073__MarethonCore__________________________92631b12afb79261078c92909188919087906001908190600401613ce1565b3360009081526008602052604081206001015481908190600160a060020a031615611e745733600090815260086020526040902060010154600160a060020a03169250611f6b565b845115611eb257611e848561265f565b925090508015611e975760009250611eb2565b600082815260066020526040902054600160a060020a031692505b600160a060020a0383161515611ec6578392505b600160a060020a038316331415611edc57600092505b600160a060020a03831615611f2857336000908152600860205260409020600101805473ffffffffffffffffffffffffffffffffffffffff1916600160a060020a038516179055611f6b565b60058054336000908152600860205260409020600101805473ffffffffffffffffffffffffffffffffffffffff1916600160a060020a0392831617905590541692505b505092915050565b600254158015611fa357506001546000908152600760205260409020600401544290670de0b6b3a7640000900411155b156120a55760018054808201825560028181556000918252600760209081526040808420929092558354835281832084905592548252600990925281812091517fdd346b1000000000000000000000000000000000000000000000000000000000815273__SkipListBoard_________________________9263dd346b109261203892600591640ba43b740091600401613cac565b60006040518083038186803b15801561205057600080fd5b505af4158015612064573d6000803e3d6000fd5b50506002546001546040517f987924a6faed19cccacbe68a08a940f2e1588ebc678b217fde23f1cd05e21c2a945061209c9350613d89565b60405180910390a15b565b6002546000908152600760205260408120548190819081908190819081908190819081906003146120d757600080fd5b6002546000908152600760205260409020600e810154600390910154909a50612106908b63ffffffff612aa616565b9850600097505b89881015612320576002546000908152600760205260409020600e0180548990811061213557fe5b60009182526020808320909101546002548352600782526040808420828552600c019092529120600601549097506121899060649061217d908c90830363ffffffff612ac916565b9063ffffffff612aa616565b95506121a1606461217d88600a63ffffffff612ac916565b94506121b3868663ffffffff61250d16565b60025460009081526007602090815260408083208b8452600c01825280832054600160a060020a031680845260089092529091205491975094506121fd908763ffffffff612afe16565b600160a060020a03808616600090815260086020526040902091825560019091015416925082158061223c5750600554600160a060020a038481169116145b156122d2576002805460009081526007602052604090206009015490860492506122669083612afe565b60025460009081526007602052604090206009015560035461228e908363ffffffff612afe16565b6003556001546000908152600760205260409020600b01546122b89083870363ffffffff612afe16565b6001546000908152600760205260409020600b0155612315565b600160a060020a0383166000908152600860205260409020546122fb908663ffffffff612afe16565b600160a060020a0384166000908152600860205260409020555b60019097019661210d565b60025460009081526007602081905260409091200154612373906123529060649061217d90602363ffffffff612ac916565b6002546000908152600760205260409020600801549063ffffffff612afe16565b6002805460009081526007602081905260408083206008019490945582548252929020909101546123b09160649161217d9163ffffffff612ac916565b6002546000908152600760205260409020600901549091506123d8908263ffffffff612afe16565b600254600090815260076020526040902060090155600354612400908263ffffffff612afe16565b60035560025460009081526007602081905260409091200154612456906124359060649061217d90600d63ffffffff612ac916565b6001546000908152600760205260409020600b01549063ffffffff612afe16565b60018054600090815260076020526040808220600b9081019490945560028054835281832060049081905584548452828420670de0b6b3a76400004262093a8001810291830191909155915480855283852060030154955485529290932094850154949092015490937f959f4660b9e7c3ff26fe64930fafa9dd78f22ce29bb132fee5dea8040fff757f93929091046040516124f493929190613d97565b60405180910390a2505060006002555050505050505050565b6000808383111561251d57600080fd5b5050808203805b5092915050565b60028054600090815260076020526040808220670de0b6b3a764000042818102600593840155855485528385209290925560018054855283852062093a80909301820260049384015585548552838520600b9081015482548752858720820155955480865284862090960154905485529290932001547fc4ab40f7474eeb0905ca10746a1fe68119e9a3b7e5b7bc5936b29972aceb725e9290046040516125d3929190613d89565b60405180910390a26000600255565b600160a060020a03811615156125f757600080fd5b60008054604051600160a060020a03808516939216917f8be0079c531659141344cd1fd0a4f28419497f9722a3daafe3b4186f6b6457e091a36000805473ffffffffffffffffffffffffffffffffffffffff1916600160a060020a0392909216919091179055565b80516000908190839082808215806126775750602083115b15612686576103ea9550612a9d565b5060005b828110156129f15783818151811015156126a057fe5b90602001015160f860020a900460f860020a02600160f860020a031916602060f860020a021480612770575083517f6000000000000000000000000000000000000000000000000000000000000000908590839081106126fc57fe5b90602001015160f860020a900460f860020a02600160f860020a031916118015612770575083517f7b000000000000000000000000000000000000000000000000000000000000009085908390811061275157fe5b90602001015160f860020a900460f860020a02600160f860020a031916105b8061281a575083517f2f00000000000000000000000000000000000000000000000000000000000000908590839081106127a657fe5b90602001015160f860020a900460f860020a02600160f860020a03191611801561281a575083517f3a00000000000000000000000000000000000000000000000000000000000000908590839081106127fb57fe5b90602001015160f860020a900460f860020a02600160f860020a031916105b806128c4575083517f40000000000000000000000000000000000000000000000000000000000000009085908390811061285057fe5b90602001015160f860020a900460f860020a02600160f860020a0319161180156128c4575083517f5b00000000000000000000000000000000000000000000000000000000000000908590839081106128a557fe5b90602001015160f860020a900460f860020a02600160f860020a031916105b15156128d4576103e99550612a9d565b81151561291e5783818151811015156128e957fe5b90602001015160f860020a900460f860020a02600160f860020a031916602060f860020a021415612919576129e9565b61299b565b838181518110151561292c57fe5b90602001015160f860020a900460f860020a02600160f860020a031916602060f860020a021480156129915750836001820381518110151561296a57fe5b90602001015160f860020a900460f860020a02600160f860020a031916602060f860020a02145b1561299b576129e9565b83818151811015156129a957fe5b90602001015160f860020a900460f860020a0284838060010194508151811015156129d057fe5b906020010190600160f860020a031916908160001a9053505b60010161268a565b8360018303815181101515612a0257fe5b90602001015160f860020a900460f860020a02600160f860020a031916602060f860020a021415612a5b57835160009085906000198501908110612a4257fe5b906020010190600160f860020a031916908160001a9053505b82821015612a9557835160018301926000918691908110612a7857fe5b906020010190600160f860020a031916908160001a905350612a5b565b602084015194505b50505050915091565b600080808311612ab557600080fd5b8284811515612ac057fe5b04949350505050565b600080831515612adc5760009150612524565b50828202828482811515612aec57fe5b0414612af757600080fd5b9392505050565b600082820183811015612af757600080fd5b6103c060405190810160405280600a905b612b29612bd9565b815260200190600190039081612b215790505090565b61014060405190810160405280600a906020820280388339509192915050565b60a0604051908101604052806005906020820280388339509192915050565b610280604051908101604052806014906020820280388339509192915050565b60a0604051908101604052806000815260200160008152602001600081526020016000600160a060020a031681526020016000151581525090565b6060604051908101604052806003906020820280388339509192915050565b6000612af78235613e80565b6000612af78251613e80565b6000601f82018313612c2157600080fd5b600a612c34612c2f82613df4565b613dcd565b91508183856020840282011115612c4a57600080fd5b60005b83811015612c765781612c608882612c04565b8452506020928301929190910190600101612c4d565b5050505092915050565b6000601f82018313612c9157600080fd5b600a612c9f612c2f82613df4565b91508183856060840282011115612cb557600080fd5b60005b83811015612c765781612ccb8882612da5565b84525060209092019160609190910190600101612cb8565b6000601f82018313612cf457600080fd5b600a612d02612c2f82613df4565b91508183856020840282011115612d1857600080fd5b60005b83811015612c765781612d2e8882612eef565b8452506020928301929190910190600101612d1b565b6000601f82018313612d5557600080fd5b600a612d63612c2f82613df4565b91508183856020840282011115612d7957600080fd5b60005b83811015612c765781612d8f8882612eef565b8452506020928301929190910190600101612d7c565b6000601f82018313612db657600080fd5b6003612dc4612c2f82613df4565b91508183856020840282011115612dda57600080fd5b60005b83811015612c765781612df08882612eef565b8452506020928301929190910190600101612ddd565b6000601f82018313612e1757600080fd5b6005612e25612c2f82613df4565b91508183856020840282011115612e3b57600080fd5b60005b83811015612c765781612e518882612eef565b8452506020928301929190910190600101612e3e565b6000601f82018313612e7857600080fd5b8151612e86612c2f82613e12565b91508181835260208401935060208101905083856020840282011115612eab57600080fd5b60005b83811015612c765781612ec18882612eef565b8452506020928301929190910190600101612eae565b6000612af78235613e8c565b6000612af78251613e8c565b6000612af78251613e5b565b6000601f82018313612f0c57600080fd5b8135612f1a612c2f82613e33565b91508082526020830160208301858383011115612f3657600080fd5b612f41838284613e9c565b50505092915050565b6000612af78235613e5b565b600060208284031215612f6857600080fd5b6000612f748484612bf8565b949350505050565b60008060008060006101c08688031215612f9557600080fd5b6000612fa18888612c04565b9550506020612fb288828901612eef565b9450506040612fc388828901612d44565b935050610180612fd588828901612ee3565b9250506101a0612fe788828901612eef565b9150509295509295909350565b6000806040838503121561300757600080fd5b60006130138585612bf8565b925050602061302485828601612f4a565b9150509250929050565b6000806000806101a0858703121561304557600080fd5b60006130518787612c10565b94505061014061306387828801612eef565b93505061016061307587828801612eef565b92505061018061308787828801612eef565b91505092959194509250565b600080600061040084860312156130a957600080fd5b60006130b58686612c80565b9350506103c06130c786828701612eef565b9250506103e06130d986828701612eef565b9150509250925092565b600080600061018084860312156130f957600080fd5b60006131058686612ce3565b93505061014061311786828701612eef565b9250506101606130d986828701612eef565b6000806000610180848603121561313f57600080fd5b60006131058686612d44565b600080600060e0848603121561316057600080fd5b600061316c8686612e06565b93505060a061317d86828701612eef565b92505060c06130d986828701612eef565b600080604083850312156131a157600080fd5b825167ffffffffffffffff8111156131b857600080fd5b6131c485828601612e67565b925050602061302485828601612eef565b6000806000606084860312156131ea57600080fd5b833567ffffffffffffffff81111561320157600080fd5b61320d86828701612efb565b935050602084013567ffffffffffffffff81111561322a57600080fd5b61323686828701612efb565b92505060406130d986828701612bf8565b60006020828403121561325957600080fd5b6000612f748484612f4a565b60006020828403121561327757600080fd5b6000612f748484612eef565b60008060006060848603121561329857600080fd5b60006132a48686612f4a565b93505060206132b586828701612bf8565b92505060406130d986828701612f4a565b600080604083850312156132d957600080fd5b60006132e58585612f4a565b925050602061302485828601612ed7565b6000806040838503121561330957600080fd5b60006130138585612f4a565b60008060006060848603121561332a57600080fd5b60006133368686612f4a565b935050602061334786828701612f4a565b92505060406130d986828701612ed7565b6000806000806080858703121561336e57600080fd5b600061337a8787612f4a565b945050602061338b87828801612f4a565b935050604085013567ffffffffffffffff8111156133a857600080fd5b6133b487828801612efb565b925050606061308787828801612bf8565b6000806000606084860312156133da57600080fd5b60006133e68686612f4a565b93505060206132b586828701612f4a565b6000806000806080858703121561340d57600080fd5b60006134198787612f4a565b945050602061342a87828801612f4a565b935050604061343b87828801612f4a565b925050606061308787828801612ed7565b600080600080600060a0868803121561346457600080fd5b60006134708888612f4a565b955050602061348188828901612f4a565b945050604061349288828901612f4a565b935050606086013567ffffffffffffffff8111156134af57600080fd5b6134bb88828901612efb565b9250506080612fe788828901612bf8565b600080600080600080600060e0888a0312156134e757600080fd5b60006134f38a8a612eef565b97505060206135048a828b01612eef565b96505060406135158a828b01612eef565b95505060606135268a828b01612eef565b94505060806135378a828b01612eef565b93505060a06135488a828b01612eef565b92505060c06135598a828b01612eef565b91505092959891949750929550565b61357181613e80565b82525050565b61358081613e64565b61358982613e5b565b60005b828110156135b95761359f858351613568565b6135a882613e5e565b60209590950194915060010161358c565b5050505050565b6135c981613e64565b6135d282613e5b565b60005b828110156135b9576135e88583516136c8565b6135f182613e5e565b6060959095019491506001016135d5565b61360b81613e64565b61361482613e5b565b60005b828110156135b95761362a8583516137ac565b61363382613e5e565b602095909501949150600101613617565b61364d81613e64565b61365682613e5b565b60005b828110156135b95761366c8583516137ac565b61367582613e5e565b602095909501949150600101613659565b61368f81613e6a565b61369882613e5b565b60005b828110156135b9576136ae8583516137ac565b6136b782613e5e565b60209590950194915060010161369b565b6136d181613e70565b6136da82613e5b565b60005b828110156135b9576136f08583516137ac565b6136f982613e5e565b6020959095019491506001016136dd565b61371381613e76565b61371c82613e5b565b60005b828110156135b9576137328583516137ac565b61373b82613e5e565b60209590950194915060010161371f565b600061375782613e7c565b80845260208401935061376983613e5e565b60005b828110156137995761377f8683516137ac565b61378882613e5e565b60209690960195915060010161376c565b5093949350505050565b61357181613e8c565b61357181613e5b565b61357181613e91565b60006137c982613e7c565b8084526137dd816020860160208601613ea8565b6137e681613ed4565b9093016020019392505050565b805160a083019061380484826137ac565b50602082015161381760208501826137ac565b50604082015161382a60408501826137ac565b50606082015161383d6060850182613568565b50608082015161156660808501826137a3565b9052565b602081016138628284613568565b92915050565b6101c081016138778288613568565b61388460208301876137ac565b6138916040830186613644565b61389f6101808301856137a3565b6138ad6101a08301846137ac565b9695505050505050565b6101a081016138c68287613577565b6138d46101408301866137ac565b6138e26101608301856137ac565b6138f06101808301846137ac565b95945050505050565b610400810161390882866135c0565b6139166103c08301856137ac565b612f746103e08301846137ac565b61018081016139338286613602565b6139416101408301856137ac565b612f746101608301846137ac565b61018081016139338286613644565b61028081016138628284613686565b60e0810161397b828661370a565b61398860a08301856137ac565b612f7460c08301846137ac565b604080825281016139a6818561374c565b9050612af760208301846137ac565b6020810161386282846137a3565b60a081016139d18288613850565b6139de6020830187613850565b6139eb60408301866137ac565b6139f860608301856137ac565b6138ad60808301846137a3565b60a08101613a138288613850565b613a206020830187613850565b613a2d60408301866137ac565b613a3a60608301856137ac565b6138ad60808301846137ac565b60c08101613a558289613850565b613a626020830188613850565b613a6f60408301876137ac565b613a7c60608301866137ac565b613a8960808301856137ac565b613a9660a08301846137a3565b979650505050505050565b60a08101613aaf8288613850565b613abc6020830187613850565b613a2d6040830186613850565b60c08101613ad78289613850565b613ae46020830188613850565b613af16040830187613850565b613afe60608301866137ac565b613b0b60808301856137ac565b613a9660a08301846137ac565b60e08101613b26828a613850565b613b336020830189613850565b613b406040830188613850565b613b4d60608301876137ac565b613b5a60808301866137ac565b613b6760a08301856137ac565b613b7460c08301846137ac565b98975050505050505050565b6101008101613b8f828b613850565b613b9c602083018a613850565b613ba96040830189613850565b613bb66060830188613850565b8181036080830152613bc881876137be565b9050613bd760a0830186613568565b613be460c0830185613850565b613bf160e08301846137a3565b9998505050505050505050565b6101408101613c0d8289613850565b613c1a6020830188613850565b613c276040830187613850565b613c346060830186613850565b613c4160808301856137f3565b613a96610120830184613850565b60608101613c5d8286613850565b613c6a60208301856137ac565b612f7460408301846137ac565b60808101613c858287613850565b613c9260208301866137ac565b613c9f60408301856137ac565b6138f060608301846137ac565b60808101613cba8287613850565b613cc760208301866137b5565b613cd460408301856137b5565b6138f060608301846137a3565b60c08101613cef8289613850565b8181036020830152613d0181886137be565b9050613d106040830187613850565b613d1d6060830186613568565b613a896080830185613850565b60808101613d388287613850565b613c926020830186613850565b60408101613d538285613850565b612af760208301846137ac565b6020810161386282846137ac565b60808101613d7c82876137ac565b613c926020830186613568565b60408101613d5382856137ac565b60608101613c5d82866137ac565b60e08101613db3828a6137ac565b613dc060208301896137ac565b613b4060408301886137ac565b60405181810167ffffffffffffffff81118282101715613dec57600080fd5b604052919050565b600067ffffffffffffffff821115613e0b57600080fd5b5060200290565b600067ffffffffffffffff821115613e2957600080fd5b5060209081020190565b600067ffffffffffffffff821115613e4a57600080fd5b506020601f91909101601f19160190565b90565b60200190565b50600a90565b50601490565b50600390565b50600590565b5190565b600160a060020a031690565b151590565b600061386282613e5b565b82818337506000910152565b60005b83811015613ec3578181015183820152602001613eab565b838111156115665750506000910152565b601f01601f1916905600a265627a7a7230582065de07d9ca64b79f33f6f6f2478efc3b772788adc6f27363ddbf5a3d57a098ef6c6578706572696d656e74616cf50037",
  "source": "pragma solidity ^0.4.24;\r\npragma experimental ABIEncoderV2;\r\n\r\n\r\nimport \"./Ownable.sol\";\r\nimport \"./SafeMath.sol\";\r\nimport \"./SkipListBoard.sol\";\r\nimport \"./MarethonCore.sol\";\r\n\r\n// The main contract for the Marethon Race\r\ncontract Marethon is Ownable {\r\n\r\n    using SkipListBoard for SkipListBoard.SkipList;\r\n    using SafeMath for uint256;\r\n\tusing MarethonCore for MarethonCore.GameData;\r\n\tusing MarethonCore for MarethonCore.UserData;\r\n    // Public Variables\r\n\r\n\tuint256 constant private PLAYERS_SHARE = 35;\r\n    uint256 constant private NEXT_POT_SHARE = 13;\r\n    uint256 constant private TEAM_SHARE = 2;\r\n    uint256 constant private AFF_SHARE = 10;\r\n\t\r\n    // Status of rounds\r\n    uint256 constant private REGISTRATION = 1; // Game/round registration\r\n    uint256 constant private GAME_ONGOING = 2; // Round started and next round registration opens\r\n    uint256 constant private GAME_ENDED = 3; // Current round ended, winners identified\r\n\tuint256 constant private GAME_CLOSED = 4; // Current round closed, winnings distributed, Waiting for registration of next round to end\r\n\tuint256 constant private GAME_CLOSED_QUICK = 5; // Games was closed quickly because there was no runner who registered.\r\n\r\n\tuint256 constant private HAS_NO_RUNNERS = 1401;\r\n\tuint256 constant private HAS_WINNER = 1402; \t\r\n\r\n\tuint256 constant private PRECISION = 1 ether; \t    \r\n\tuint256 constant private FIRST_START = 1543305600 * PRECISION; // The time of the first Marethon, in unix time format, save the date\r\n\t\r\n\tMarethonCore.CoreVars private vars;\r\n\t// Contains the data of each game/round, round number => GameData\r\n    mapping (uint256 => MarethonCore.GameData) private games; \r\n    \r\n\t// Contains the user specific data of the games/rounds\r\n\tmapping (address => MarethonCore.UserData) private users;\r\n\tmapping (uint256 => SkipListBoard.SkipList) private scoreBoards;\r\n\r\n\t//TODO decide on scoreboard init values\r\n\t// TODO difference between private and internal\r\n\t// TODO diff between pure and view\r\n\t// Set the first registration round, first marathon start time, and initialize the \r\n\t// first round's score board\r\n    constructor () public {\r\n\t\tvars.registerRound = 1;\r\n\t\tgames[vars.registerRound].status = REGISTRATION;\r\n\t\tgames[vars.registerRound].start = FIRST_START;\r\n\t\tscoreBoards[vars.registerRound].init(8,50000000000,false);\r\n\t\tvars.defAffAddr = owner();\r\n    }\r\n\r\n    function getUserInfo(address user) public view returns (\r\n        uint256 ethBalance, address affAddr, uint256 nRounds, uint256 nResTags\r\n    )\r\n    {\r\n        ethBalance = users[user].ethBalance;\r\n        affAddr = users[user].affAddr;\r\n        nRounds = users[user].rounds.length;\r\n        nResTags = users[user].resTagNames.length;\r\n    }\r\n\tfunction getGameInfo(uint256 round) public view returns (uint256[20] gameInfo) {\r\n\t\tgameInfo[0] = games[round].status;\r\n\t\tgameInfo[1] = games[round].nRunners;\t\t\r\n\t\tgameInfo[2] = games[round].totEth;\r\n\t\tgameInfo[3] = games[round].potWon;\r\n\t\tgameInfo[4] = games[round].start/PRECISION;\r\n\t\tgameInfo[5] = games[round].end/PRECISION;\r\n\t\tgameInfo[6] = games[round].nUsers;\r\n\t\tgameInfo[7] = games[round].winners.length;\r\n\t\tgameInfo[8] = games[round].shares.potShares;\r\n\t\tgameInfo[9] = games[round].shares.usersShares;\t\t\r\n\t\tgameInfo[10] = games[round].shares.teamShares;\t\t\r\n\t\tgameInfo[11] = games[round].shares.totShares;\t\t\r\n\t\tgameInfo[12] = games[round].shares.potTransferred;\r\n\t\tgameInfo[13] = scoreBoards[round].level;\r\n\t\tgameInfo[14] = scoreBoards[round].nodeCount;\t\t\r\n\t\tgameInfo[15] = vars.registerRound;\r\n\t\tgameInfo[16] = vars.activeRound;\r\n\t\tgameInfo[17] = vars.teamBalance;\r\n\t\tgameInfo[18] = vars.userCount;\r\n\t\tgameInfo[19] = uint256(vars.defAffAddr);\r\n\t}\r\n\t/**\r\n\t**\t@dev  \tgets the affiliate address of the current transaction\r\n\t**\t@param  affi - the affiliate name/address of the transaction\r\n\t**  @return  the affiliate's address\r\n\t**/\t\t\t\t\t\t\r\n\tfunction getAffAddr(string affi, address affAddr) internal returns (address newAffAddr) {\r\n\t    if (users[msg.sender].affAddr != 0) // The first affiliate address will always be the aff address\r\n\t        return users[msg.sender].affAddr;\r\n\t        \r\n\t\tif (bytes(affi).length != 0) { // affiliate is not null\r\n\t\t\tbytes32 affName;\r\n\t\t\tuint256 retCode;\r\n\t\t\t(retCode, affName) = MarethonCore.makeValid(affi);\r\n\t\t\tif (retCode != 0)\r\n\t\t\t\tnewAffAddr = 0;\r\n\t\t\telse\r\n\t\t\t\tnewAffAddr = vars.reservedNames[affName]; \t\t\t\r\n\t\t}\r\n\t\tif (newAffAddr == 0)  // New affiliate address not set or affiliate name is invalid\r\n\t        newAffAddr = affAddr; // Use the affiliate address supplied\t\t    \r\n\t    if (newAffAddr == msg.sender)\r\n\t        newAffAddr = 0;\r\n\t    if (newAffAddr != 0)\r\n\t        users[msg.sender].affAddr = newAffAddr;\r\n\t    else {\r\n\t        users[msg.sender].affAddr = vars.defAffAddr;\r\n\t        newAffAddr = vars.defAffAddr;\r\n\t    }\r\n\t}\r\n\t\r\n\t/**\r\n\t**\t@dev  \tregisters a runner\r\n\t**\t@param  tagName - the runner's tagName\r\n\t**\t@param  affi - the affiliate name/address of the transaction\r\n\t**/\t\t\t\t\t\t\t\r\n\t// TODO do we need to check msg.sender == 0?\r\n    function registerFromWal(string tagName, string affName, address affAddr) public payable {\r\n\t    affAddr = getAffAddr(affName,affAddr); // Get the affiliate address\r\n\t\tcheckGameStart();\t\t\r\n\t\tgames[vars.registerRound].register(users[msg.sender], users[affAddr], scoreBoards[vars.registerRound], tagName, affAddr, vars, true);\r\n\t}\r\n\r\n    function registerFromBal(string tagName, string affName, address affAddr) public {\r\n\t\taffAddr = getAffAddr(affName,affAddr); // Get the affiliate address\r\n\t\tcheckGameStart();\t\t\r\n\t\tgames[vars.registerRound].register(users[msg.sender], users[affAddr], scoreBoards[vars.registerRound], tagName, affAddr, vars,false);\r\n\t}\r\n\t\r\n\t/**\r\n\t**\t@dev  \treserves a name\r\n\t**\t@param  tagName - the name to be reserved\r\n\t**\t@param  affi - the affiliate name/address of the transaction\r\n\t**/\t\t\t\t\r\n    function reserveNameFromWal(string tagName, string affName, address affAddr) public payable {\r\n\t    affAddr = getAffAddr(affName,affAddr); // Get the affiliate address\t\t\r\n\t\tusers[msg.sender].reserveName(tagName, users[affAddr], affAddr, vars, true);\t\t\r\n    }\r\n\r\n\t/**\r\n\t**\t@dev  \treserves a name\r\n\t**\t@param  tagName - the name to be reserved\r\n\t**\t@param  affi - the affiliate name/address of the transaction\r\n\t**/\t\t\t\t\r\n    function reserveNameFromBal(string tagName, string affName, address affAddr) public {\r\n\t    affAddr = getAffAddr(affName,affAddr); // Get the affiliate address\t\t\r\n\t\tusers[msg.sender].reserveName(tagName, users[affAddr], affAddr, vars, false);\t\t\r\n    }\r\n\t\r\n\t/**\r\n\t**\t@dev  \tbuy a weapon from eth wallet\r\n\t**\t@param  round - the game's round\r\n\t**\t@param  w - what type of weapon is being bought\r\n\t**  @param  affi - affiliate name\r\n\t**/\t\t\t\t\t\t\t\r\n\tfunction buyWeaponFromWal(uint256 round, uint256 w, string affName, address affAddr) public payable {\r\n\t    affAddr = getAffAddr(affName, affAddr); // Get the affiliate address\t\t\t\r\n\t\tcheckGameStart();\t\t\t\t\r\n\t    MarethonCore.BuyArgs memory buyArgs = MarethonCore.BuyArgs(round, w, msg.value, affAddr, true);\t\t\r\n\t\tuint256 retCode = games[round].buyWeapon(\r\n\t\t    users[msg.sender], users[affAddr], scoreBoards[vars.registerRound], \r\n\t\t    buyArgs, vars\r\n\t\t);\r\n\t\tif (retCode == HAS_NO_RUNNERS)\r\n\t\t\tquickCloseRound();\r\n\t\telse if (retCode == HAS_WINNER)\r\n\t\t\tcloseRound();\t\r\n\t}\r\n\r\n\t/**\r\n\t**\t@dev  \tbuy a weapon from user's account balance\r\n\t**\t@param  round - the game's round\r\n\t**\t@param  w - what type of weapon is being bought\t\r\n\t**\t@param  amount - payment amount\r\n\t**  @param  affi - affiliate name\r\n\t**/\t\r\n\tfunction buyWeaponFromBal(uint256 round, uint256 w, uint256 payment, string affName, address affAddr) public {\r\n\t    affAddr = getAffAddr(affName, affAddr); // Get the affiliate address\r\n\t\t// Checks if race has started\t\t\r\n\t\tcheckGameStart();\t\t\t\t\r\n\t    MarethonCore.BuyArgs memory buyArgs = MarethonCore.BuyArgs(round, w, payment, affAddr, false);\t\t\t\t\r\n\t\tuint256 retCode = games[round].buyWeapon(\r\n\t\t    users[msg.sender], users[affAddr], scoreBoards[vars.registerRound],\r\n\t\t    buyArgs, vars\r\n\t\t);\r\n\t\tif (retCode == HAS_NO_RUNNERS)\r\n\t\t\tquickCloseRound();\r\n\t\telse if (retCode == HAS_WINNER)\r\n\t\t\tcloseRound();\t\r\n\t}\r\n\t\r\n\t/**\r\n\t**\t@dev  \tthrows bombs on a runner \r\n\t**\t@param  tagNumber - the runnner to be bombed\r\n\t**\t@param  fromRunner - the runner (or supported runner) who is doing the bombing\r\n\t**  @param  nBomb - number of bombs to throw\r\n\t**/\t\t\t\t\t\t\t\t\t\t\r\n    function throwBomb(uint256 tagNumber, uint256 fromRunner, uint256 nBomb) public {\r\n\t\trequire(tagNumber != 0 && fromRunner != 0);/*, \"Zero runners does not exist.\");*/\r\n\t\trequire (nBomb >= 1 * PRECISION);/*, \"Number of bombs to throw should at least be one.\");*/\r\n        require(fromRunner != tagNumber);/*, \"Bomber cannot bomb himself.\");\t*/\r\n\t\t// Checks if race has started\t\t\t\t\t\t\r\n\t\tcheckGameStart();\r\n\t\tuint256 retCode = games[vars.activeRound].throwBomb(\r\n\t\t\tusers[msg.sender], scoreBoards[vars.activeRound], \r\n\t\t\tvars.activeRound, tagNumber, fromRunner, nBomb\r\n\t\t);\r\n\t\tif (retCode == HAS_WINNER)\r\n\t\t\tcloseRound();\r\n    }\r\n\r\n\t/**\r\n\t**\t@dev  \tremoves the shields of a runner by bombing a correponding number of bombs \r\n\t**\t@param  tagNumber - the runnner to be bombed\r\n\t**\t@param  fromRunner - the runner (or supported runner) who is doing the bombing\r\n\t**/\t\t\t\t\t\t\t\t\t\t\t\r\n    function unShield(uint256 tagNumber, uint256 fromRunner) public {\r\n\t\trequire(tagNumber != 0 && fromRunner != 0);/*, \"Zero runners does not exist.\");\t*/\r\n        require(\r\n            fromRunner != tagNumber);/*,*/\r\n  //          \"Bomber cannot bomb/unshield himself.\"\r\n  //      );\t\t\t\t\r\n\t\t// Checks if race has started\t\t\t\t\t\t\t\t\r\n\t\tcheckGameStart();\r\n\t\tuint256 retCode = games[vars.activeRound].unShield(\r\n\t\t\tusers[msg.sender], scoreBoards[vars.activeRound],\r\n\t\t\tvars.activeRound, tagNumber, fromRunner\r\n\t\t);\r\n\t\tif (retCode == HAS_WINNER)\r\n\t\t\tcloseRound();\t\t\r\n    }\r\n\t\r\n\t/**\r\n\t**\t@dev  \tthrows banana peels on a runner \r\n\t**\t@param  tagNumber - the runnner to be thrown banana peels\r\n\t**\t@param  fromRunner - the runner (or supported runner) who is doing the throwing\r\n\t**  @param  nPeel - number of banana peels to throw\r\n\t**/\t\t\t\t\t\t\t\t\t\t\t\r\n    function throwPeel (uint256 tagNumber, uint256 fromRunner, uint256 nPeel) public {\r\n\t\trequire(tagNumber != 0 && fromRunner != 0);/*, \"Zero runners does not exist.\");\t*/\r\n        require(nPeel >= 1 * PRECISION);/*, \"Number of banana peels to throw should at least be one.\");*/\r\n\t\trequire(\r\n            fromRunner != tagNumber);/*,*/\r\n  //          \"Banana peel thrower cannot throw peels on himself.\"\r\n  //      );\t\r\n\t\t// Checks if race has started\t\t\t\t\t\t\t\t\r\n\t\tcheckGameStart();\r\n\t\tuint256 retCode = games[vars.activeRound].throwPeel(\r\n\t\t\tusers[msg.sender], scoreBoards[vars.activeRound], \r\n\t\t\tvars.activeRound, tagNumber, fromRunner, nPeel\r\n\t\t);\r\n\t\tif (retCode == HAS_WINNER)\r\n\t\t\tcloseRound();\r\n    }\r\n\r\n\t/**\r\n\t**\t@dev  \teats a spinach and boost its runner's speed\r\n\t**\t@param  tagNumber - the runnner who will eat a spinach\r\n\t**/\t\t\t\t\t\t\t\t\t\t\t\r\n    function eatSpinach (uint256 tagNumber) public {\r\n\t\trequire(tagNumber != 0);/*, \"Zero runner does not exist.\");\t*/\r\n\t\t// Checks if race has started\t\t\t\t\t\t\t\t\r\n\t\tcheckGameStart();\r\n\t\tuint256 retCode = games[vars.activeRound].eatSpinach(\r\n\t\t\tusers[msg.sender], scoreBoards[vars.activeRound], \r\n\t\t\tvars.activeRound, tagNumber\r\n\t\t);\r\n\t\tif (retCode == HAS_WINNER)\r\n\t\t\tcloseRound();\t\t\r\n    }\r\n\r\n\t/**\r\n\t**\t@dev  \tputs shields on a runner\r\n\t**\t@param  tagNumber - the runnner to be thrown banana peels\r\n\t**  @param  nShield - number of shield to put\r\n\t**/\t\t\t\t\t\t\t\t\t\t\t\t\r\n    function putShield (uint256 tagNumber, uint256 nShield) public {\r\n\t\trequire(tagNumber != 0);/*, \"Zero runner does not exist.\");\t*/\r\n\t\trequire(nShield >= 1 * PRECISION);/*, \"Number of shields to put should at least be one.\");*/\r\n\t\t// Checks if race has started\t\t\t\t\t\t\t\t\t\t\r\n\t\tcheckGameStart();\r\n\t\tuint256 retCode = games[vars.activeRound].putShield(\r\n\t\t\tusers[msg.sender], scoreBoards[vars.activeRound], \r\n\t\t\tvars.activeRound, tagNumber, nShield\r\n\t\t);\r\n\t\tif (retCode == HAS_WINNER)\r\n\t\t\tcloseRound();\t\t\t\t\r\n    }\r\n\r\n\t/**\r\n\t**\t@dev  \tupdates the supporters share to be given by the runner when he wins\r\n\t**\t@param  tagNumber - the runnner\r\n\t**\t@param  share - the percentage of share to update\r\n\t**/\t\t\t\t\t\t\t\t\t\t\t\t\r\n    function setSupportersShare (uint256 tagNumber, uint256 share) public {\r\n\t\trequire(tagNumber != 0);/*, \"Zero runner does not exist.\");\t*/\r\n\t    require(share >= 1 && share <= 99);/*, \"Share should be within 1 to 99 percent\");*/\r\n\t\t\r\n\t\t// Checks if race has started\t\t\t\t\t\t\t\t\t\t\r\n\t\tcheckGameStart();\r\n\t\tuint256 retCode = games[vars.activeRound].setSupportersShare(\r\n\t\t\tscoreBoards[vars.activeRound], \r\n\t\t\tvars.activeRound, tagNumber, share\r\n\t\t);\r\n\t\tif (retCode == HAS_WINNER)\r\n\t\t\tcloseRound();\t\t\t\t\t\t\r\n    }\r\n\t\r\n\t/**\r\n\t**\t@dev  \tdistributes the winnings to winner/s and its supporters and the share of all the users in the system and closes the round\r\n\t**/\t\t\t\t\t\t\t\t\t\t\t\t\t\r\n    function closeRound () internal {\r\n\t\trequire(games[vars.activeRound].status == GAME_ENDED);/*, \"To close, the round should be ended first.\");\t\t\t*/\r\n\r\n\t\tuint256 nWinners = games[vars.activeRound].winners.length;\r\n\t\t// divide the pot won among winners\r\n\t\tuint256 potWon = games[vars.activeRound].potWon.div(nWinners);\r\n\t\t// distribute pot won to winners and its supporters\r\n\t\tfor (uint256 i = 0;i < nWinners; i++) {\r\n\t\t\t\tuint256 winner = games[vars.activeRound].winners[i];\r\n\t\t\t\t// get the winner's share and credit the owner's account balance\r\n\t\t\t\t// Winner share will be credited automatically but supporters winnings will have to be claimed manually by\r\n\t\t\t\t// each supporters.\r\n\t\t\t\tuint256 winnerShare = potWon.mul(100 - games[vars.activeRound].runners[winner].supportersShare).div(100);\r\n                uint256 affShare = winnerShare.mul(AFF_SHARE).div(100);\r\n\t\t\t\twinnerShare = winnerShare.sub(affShare);\r\n\t\t\t\taddress winOwner = games[vars.activeRound].runners[winner].owner;\r\n\t\t\t\tusers[winOwner].ethBalance = users[winOwner].ethBalance.add(winnerShare);\r\n\t\t\t\taddress affAddr = users[winOwner].affAddr;\r\n\t\t\t\tif ((affAddr == 0) || (affAddr == vars.defAffAddr)) {\r\n\t\t\t\t    uint256 hAffShare = affShare / 2;\r\n\t\t            games[vars.activeRound].shares.teamShares = games[vars.activeRound].shares.teamShares.add(hAffShare);\r\n\t\t            vars.teamBalance = vars.teamBalance.add(hAffShare);\r\n\t\t            games[vars.registerRound].shares.potTransferred = games[vars.registerRound].shares.potTransferred.add(affShare - hAffShare);\r\n\t\t\t\t} else\r\n\t\t\t\t    users[affAddr].ethBalance = users[affAddr].ethBalance.add(affShare);\r\n\t\t}\r\n\t\t// distribute players/users shares\r\n\t\tgames[vars.activeRound].shares.usersShares = games[vars.activeRound].shares.usersShares.add(games[vars.activeRound].shares.potShares.mul(PLAYERS_SHARE).div(100));\r\n\t\t// distribute dev team's shares\t\t\r\n\t\tuint256 teamShare = games[vars.activeRound].shares.potShares.mul(TEAM_SHARE).div(100);\r\n\t\tgames[vars.activeRound].shares.teamShares = games[vars.activeRound].shares.teamShares.add(teamShare);\r\n\t\tvars.teamBalance = vars.teamBalance.add(teamShare);\r\n\t\t// transfer next pot share to next round's pot\r\n\t\tgames[vars.registerRound].shares.potTransferred = games[vars.registerRound].shares.potTransferred.add(games[vars.activeRound].shares.potShares.mul(NEXT_POT_SHARE).div(100));\r\n\t\tgames[vars.activeRound].status = GAME_CLOSED;\r\n\t\t// set the next race to 1 week after\r\n\t\tgames[vars.registerRound].start = (now + 1 weeks) * PRECISION;\r\n\t\t\r\n\t\temit onCloseRound(\r\n\t\t\tvars.activeRound, games[vars.activeRound].potWon, games[vars.registerRound].shares.potTransferred, \r\n\t\t\tgames[vars.registerRound].start/PRECISION\r\n\t\t);\t\t\r\n\t\t\r\n\t\tvars.activeRound = 0;\t\t\r\n    }\r\n\r\n\t/**\r\n\t**\t@dev  \tchecks if the race has started and sets the active round and the next registration round and scoreboard\r\n\t**/\t\t\t\t\t\t\t\t\t\t\t\t\t\r\n\tfunction checkGameStart() internal {\r\n\t\t// if game started, set active and next registration round\r\n\t\tif ((vars.activeRound == 0) && (games[vars.registerRound].start/PRECISION <= now)) {\r\n\t\t\tvars.activeRound = vars.registerRound++;\r\n\t\t\tgames[vars.activeRound].status = GAME_ONGOING;\r\n\t\t\tgames[vars.registerRound].status = REGISTRATION;\r\n\t\t\tscoreBoards[vars.registerRound].init(5,50000000000,false);\t\t\t\r\n\t\t\temit onGameStart(\r\n\t\t\t\tvars.activeRound, vars.registerRound\r\n\t\t\t);\t\t\t\r\n\t\t}\r\n\t}\r\n\r\n\t/**\r\n\t**\t@dev  \tclose the round as there are no runners who registered and sets the start date of the next race\r\n\t**/\t\t\t\t\t\t\t\t\t\t\t\t\t\r\n\tfunction quickCloseRound() internal {\r\n\t\tgames[vars.activeRound].end = now * PRECISION;\r\n\t\tgames[vars.activeRound].status = GAME_CLOSED_QUICK;\r\n\t\tgames[vars.registerRound].start = (now + 1 weeks) * PRECISION;\r\n\t\t// since no one registered, put the current round pot transfer to the next round's pot transfer\r\n\t\tgames[vars.registerRound].shares.potTransferred = games[vars.activeRound].shares.potTransferred;\t\r\n\t\t\r\n\t\temit onQuickCloseRound(\r\n\t\t\tvars.activeRound, games[vars.activeRound].shares.potTransferred, games[vars.registerRound].start/PRECISION\t\t\r\n\t\t);\r\n\t\t\r\n\t\tvars.activeRound = 0;\r\n\t}\r\n    \r\n\t/**\r\n\t**\t@dev  \tclaims winnings of a winner supporter\r\n\t**\t@param  round - the game round\r\n\t**\t@param  tagNumber - the winner's tag number\t\r\n\t**/\t\t\t\t\t\t\t\t\t\t\t\t\t\r\n\tfunction claimSupporterWinning(uint256 round, uint256 tagNumber) public {\r\n\t\tgames[round].claimSupporterWinning(users[msg.sender], scoreBoards[round], round, tagNumber);\r\n\t}\r\n\t// Getter functions\r\n\t\r\n\t/**\r\n\t**\t@dev  \tgets the first N runners in the scoreboard\r\n\t**\t@param  round - the game round\r\n\t**\t@param  nRunners - number of runners to fetch\r\n\t**\t@return  list of first N runners\r\n\t**/\t\t\t\t\t\t\t\t\t\t\t\t\t\t\t\r\n\tfunction get1stLastPage(uint256 round, uint256 nRunners, bool lastPage) public view returns (\r\n\t\tuint256[] runners, uint256 retCode\r\n\t)\r\n\t{\r\n\t\treturn games[round].get1stLastPage(scoreBoards[round], round, nRunners, lastPage);\r\n\t}\r\n\t\r\n\t/**\r\n\t**\t@dev  \tgets the next N runners in the scoreboard starting from a particular runner\r\n\t**\t@param  round - the game round\r\n\t**\t@param  start from - fetch N runners starting from this runner\r\n\t**\t@param  nRunners - number of runners to fetch\r\n\t**\t@return  list of next N runners fetched\r\n\t**/\t\t\t\t\t\t\t\t\t\t\t\t\t\t\t\t\r\n\tfunction getPrevNextPage(uint256 round, uint256 startFrom, uint256 nRunners, bool nextPage) public view returns (\r\n\t\tuint256[] runners, uint256 retCode\r\n\t)\r\n\t{\r\n\t\treturn games[round].getPrevNextPage(scoreBoards[round], round, startFrom, nRunners, nextPage);\t\r\n\t}\r\n\r\n\t/**\r\n\t**\t@dev  \tgets the info of a runner in a particular round\r\n\t**\t@param  round - the round\r\n\t**\t@param  tag number = the runner's tag number\r\n\t**\t@return  owner - round status\r\n\t**\t@return  tag name - number of runners\r\n\t**\t@return  meters ran - total eth spent on this round\r\n\t**\t@return  runner speed - pot won on this round\r\n\t**\t@return  checkpoint - start time of this round\r\n\t**\t@return  finish time - end time of this round\r\n\t**\t@return  supportersShare - number of users in this round\r\n\t**\t@return  xSpinachAte - number of winners of this round\t\r\n\t**\t@return  xShielded - number of winners of this round\t\r\n\t**\t@return  onSpinach - number of winners of this round\t\r\n\t**\t@return  nShield - number of winners of this round\t\r\n\t**/\t\t\t\t\t\t\t\t\t\t\t\t\t\t\t\r\n\tfunction getRunnerInfo(uint256 round, uint256 tagNumber) public view returns (\t\r\n        address owner , bytes32 tagName , uint256[10] runData, bool onSpinach, uint256 retCode\r\n\t)\r\n\t{\r\n\t\treturn games[round].getRunnerInfo(round, tagNumber);\r\n\t}\r\n\t\t\t\r\n\t/**\r\n\t**\t@dev  \tgets the winners 5 at a time at particular index\r\n\t**\t@param  round - the round\r\n\t**\t@param  index - the starting index\tof winners to fetch\r\n\t**  @return  winners - list of winners fetched\r\n\t**\t@return  nWinners - number of winners in this round\r\n\t**/\t\t\t\t\t\t\t\t\t\t\t\t\t\t\t\t\r\n\tfunction getWinners(uint256 round, uint256 index) public view returns (\r\n\t\tuint256[5] winners, uint256 nWinners, uint256 retCode\r\n\t)\r\n\t{\r\n\t\treturn games[round].getWinners(round, index);\r\n\t}\r\n\r\n\t/**\r\n\t**\t@dev  \tgets the supporters of a particular runner in a round 10 at a time\r\n\t**\t@param  round - the round \r\n\t**\t@param  tag number - runner's tag number \r\n\t**  @return  supporters - runner's list of supporters fetched\r\n\t**\t@return  nSupporters - runner's number of supporters \r\n\t**\t@return  totShares - total shares of supporters \t\r\n\t**/\t\t\t\t\t\t\t\t\t\t\r\n\tfunction getSupporters(uint256 round, uint256 tagNumber, uint256 index) public view returns (\r\n\t\taddress[10] supporters, uint256 nSupporters, uint256 totShares, uint256 retCode\r\n\t) \r\n\t{\r\n\t\treturn games[round].getSupporters(round, tagNumber, index);\r\n\t}\r\n\r\n\t/**\r\n\t**\t@dev  \tgets the enemies of a particular runner in a round 10 at a time\r\n\t**\t@param  round - the round \r\n\t**\t@param  tag number - runner's tag number \r\n\t**\t@param  index - the starting index\tof enemies to fetch\r\n\t**  @return  enemies - runner's list of enemies fetched\r\n\t**\t@return  nEnemies - runner's number of enemies \r\n\t**/\t\t\t\t\t\t\t\t\t\t\r\n\tfunction getEnemies(uint256 round, uint256 tagNumber, uint256 index) public view returns (\r\n\t\tuint256[3][10] enemies, uint256 nEnemies, uint256 retCode\r\n\t) \r\n\t{\r\n\t\treturn games[round].getEnemies(round, tagNumber, index);\r\n\t}\r\n\r\n\t/**\r\n\t**\t@dev  \tgets the round info on a particular user\r\n\t**\t@param  user - the user's address\r\n\t**\t@param  round - the round\r\n\t**\t@return  shares - user's shares for this round\r\n\t**\t@return  sharesClaimed - user's shares that was claimed\r\n\t**\t@return  nBomb - number of user's bombs bought in this round\r\n\t**\t@return  nPeel - number of user's banana peels bought in this round\r\n\t**\t@return  nSpinach - number of user's spinach bought in this round\r\n\t**\t@return  nShield - number of user's shield bought in this round\r\n\t**/\t\t\t\t\t\t\t\t\t\t\t\t\t\t\t\t\r\n\tfunction getUserRoundInfo (address user, uint256 round) public view returns (\r\n\t\tuint256 shares, uint256 sharesClaimed,\r\n\t\tuint256 nBomb, uint256 nPeel, \r\n\t\tuint256 nSpinach, uint256 nShield, uint256 retCode\r\n\t) \r\n\t{\r\n\t\treturn users[user].getUserRoundInfo(round, games[round].status);\r\n\t}\r\n\r\n\t/**\r\n\t**\t@dev  \tgets the rounds participated by a user 10 at a time\r\n\t**\t@param  user = user's address\r\n\t**\t@param  index - the starting index\tof rounds to fetch\r\n\t**  @return  names - user's list of rounds fetched\r\n\t**\t@return  nNames - user's number of rounds \r\n\t**/\t\t\t\t\t\t\t\t\t\t\r\n\tfunction getReservedNames(address user, uint256 index) public view returns (\r\n\t\tbytes32[10] names, uint256 nNames, uint256 retCode\r\n\t) \r\n\t{\r\n\t\treturn users[user].getReservedNames(index);\r\n\t}\r\n\t\r\n\t/**\r\n\t**\t@dev  \tgets the rounds participated by a user 10 at a time\r\n\t**\t@param  user = user's address\r\n\t**\t@param  index - the starting index\tof rounds to fetch\r\n\t**  @return  rounds - user's list of rounds fetched\r\n\t**\t@return  nRounds - user's number of rounds \r\n\t**/\t\t\t\t\t\t\t\t\t\t\r\n\tfunction getRounds(address user, uint256 index) public view returns (\r\n\t\tuint256[10] rounds, uint256 nRounds, uint256 retCode\r\n\t) \r\n\t{\r\n\t\treturn users[user].getRounds(index);\r\n\t}\r\n\t\r\n\t/**\r\n\t**\t@dev  \tgets the runners of a user for a particular round 10 at a time\r\n\t**\t@param  round - the round\r\n\t**\t@param  user = user's address\r\n\t**\t@param  index - the starting index\tof runners to fetch\r\n\t**  @return  runners - user's list of runners fetched\r\n\t**\t@return  nRunners - user's number of runners \r\n\t**/\t\t\t\t\t\t\t\t\t\t\r\n\tfunction getRunners(uint256 round, address user, uint256 index) public view returns (\r\n\t\tuint256[10] runners, uint256 nRunners, uint256 retCode\r\n\t) \r\n\t{\r\n\t\treturn users[user].getRunners(round, index);\r\n\t}\r\n\r\n\t/**\r\n\t**\t@dev  \tgets the runners supported by a user for a particular round 10 at a time\r\n\t**\t@param  round - the round\r\n\t**\t@param  user = user's address\r\n\t**\t@param  index - the starting index\tof supported runners to fetch\r\n\t**  @return  runners - user's list of supported runners fetched\r\n\t**\t@return  nRunners - user's number of supported runners \r\n\t**/\t\t\t\t\t\t\t\t\t\t\r\n\tfunction getSupportedRunners(uint256 round, address user, uint256 index) public view returns (\r\n\t\tuint256[10] runners, uint256 nRunners, uint256 retCode\r\n\t) \r\n\t{\r\n\t\treturn users[user].getSupportedRunners(round, index);\r\n\t}\r\n\t\t\r\n\t/**\r\n\t**\t@dev  \twithdraws amount from user's account balance\r\n\t**\t@param  amount - the amount to withdraw\r\n\t**/\t\t\t\t\t\t\t\t\t\t\t\t\t\r\n    function withdraw(uint256 amount, bool all) public {\r\n        if (all)\r\n            amount = users[msg.sender].ethBalance;\r\n\t\trequire(amount != 0);/*, \"Amount to withdraw should not be zero.\");*/\r\n\t\trequire(users[msg.sender].ethBalance >= amount);/*, \"User should have sufficient balance to withdraw.\");*/\r\n\t\t\r\n\t\t// updates the account balance\r\n\t\tusers[msg.sender].ethBalance = users[msg.sender].ethBalance.sub(amount);\r\n\t\t// transfers the amount to eth wallet\r\n\t\tmsg.sender.transfer(amount);\t\r\n\t\t\r\n\t\temit onWithdraw(\r\n\t\t\tmsg.sender, amount\r\n\t\t);\t\t\r\n    }\r\n\r\n\t/**\r\n\t**\t@dev  \tclaim/convert shares to eth\r\n\t**\t@param  round - the round where shares will be claimed\r\n\t** \t@param  shares2claim - the shares to claim\r\n\t**/\t\t\t\t\t\t\t\t\t\t\t\t\t\t\r\n    function claimShares(uint256 round, uint256 shares2Claim, bool all) public {\r\n        if (all)\r\n            shares2Claim = users[msg.sender].gameData[round].shares.sub(users[msg.sender].gameData[round].sharesClaimed);\r\n\t\tusers[msg.sender].claimShares(games[round], round, shares2Claim);\r\n\t}\r\n\r\n\t/**\r\n\t**\t@dev  \twithdraws eth from dev team's account balance \r\n\t**\t@param  amount - the amount to withdraw\r\n\t**/\t\t\t\t\t\t\t\t\t\t\t\t\t\t\r\n    function adminWithdraw(uint amount, bool all) public onlyOwner {\r\n        if (all)\r\n            amount = vars.teamBalance;\r\n\t\trequire(vars.teamBalance != 0);/*, \"Team has no more funds to withdraw.\");*/\r\n\t\trequire(amount != 0);/*, \"Amount to withdraw should not be zero.\");*/\r\n\t\trequire(vars.teamBalance >= amount);/*, \"Team should have sufficient balance to withdraw.\");*/\r\n\t\t// Should specify specific address or should be trasferable ownership.??\r\n\t\t// transfers amount to owner address\r\n\t\tmsg.sender.transfer(amount);\t\t\r\n\t\t// update dev team's account balance\r\n\t\tvars.teamBalance = vars.teamBalance.sub(amount);\t\t\r\n\t\temit onAdminWithdraw(\r\n\t\t\tmsg.sender, amount\r\n\t\t);\t\t\r\n    }\r\n\r\n\tevent onRegisterFromWal (\r\n\t\tuint256 indexed round,\r\n\t\tuint256 indexed tagNumber,\r\n\t\taddress indexed user,\t\r\n\t\tuint256 payment,\r\n\t\tbytes32 tagName,\r\n\t\taddress affAddr,\r\n\t\tuint256 finishTime\r\n\t);\r\n\r\n\tevent onRegisterFromBal (\r\n\t\tuint256 indexed round,\r\n\t\tuint256 indexed tagNumber,\r\n\t\taddress indexed user,\t\r\n\t\tuint256 payment,\r\n\t\tbytes32 tagName,\r\n\t\taddress affAddr,\r\n\t\tuint256 finishTime\r\n\t);\r\n\r\n\tevent onUpdateScore (\r\n\t\tuint256 indexed round,\r\n\t\tuint256 indexed tagNumber,\r\n\t\tuint256 indexed finishTime\t\t\t\r\n\t);\r\n\t\r\n\tevent onReserveNameFromWal(\r\n\t\taddress indexed user,\t\t\r\n\t\tbytes32 indexed name,\r\n\t\tuint256 payment,\r\n\t\taddress affAddr\r\n\t);\r\n\r\n\tevent onReserveNameFromBal(\r\n\t\taddress indexed user,\t\t\r\n\t\tbytes32 indexed name,\r\n\t\tuint256 payment,\r\n\t\taddress affAddr\r\n\t);\r\n\t\r\n\tevent onBuyWeaponFromWal (\r\n\t\tuint256 indexed round,\r\n\t\tuint256 indexed weapon,\r\n\t\taddress indexed user,\t\t\r\n\t\tuint256 payment,\r\n\t\tuint256 peelPrice,\r\n\t\taddress affAddr,\t\t\r\n\t\tuint256 nWeapon\r\n\t);\r\n\t\r\n\tevent onBuyWeaponFromBal (\r\n\t\tuint256 indexed round,\r\n\t\tuint256 indexed weapon,\r\n\t\taddress indexed user,\t\t\r\n\t\tuint256 payment,\r\n\t\tuint256 peelPrice,\r\n\t\taddress affAddr,\r\n\t\tuint256 nWeapon\t\r\n\t);\r\n\t\r\n\tevent onThrowBomb (\r\n\t\tuint256 indexed round,\r\n\t\tuint256 indexed tagNumber,\r\n\t\taddress indexed user,\r\n\t\tuint256 fromRunner,\r\n\t\tuint256 nBomb,\r\n\t\tuint256 nShield,\r\n\t\tuint256 finishTime\r\n\t);\r\n\r\n\tevent onUnShield (\r\n\t\tuint256 indexed round,\r\n\t\tuint256 indexed tagNumber,\r\n\t\taddress indexed user,\t\r\n\t\tuint256 fromRunner,\r\n\t\tuint256 nShield\r\n\t);\r\n\t\t\r\n\tevent onThrowPeel (\r\n\t\tuint256 indexed round,\r\n\t\tuint256 indexed tagNumber,\r\n\t\taddress indexed user,\r\n\t\tuint256 fromRunner,\r\n\t\tuint256 nPeel,\r\n\t\tuint256 finishTime\r\n\t);\r\n\t\r\n\tevent onEatSpinach (\r\n\t\tuint256 indexed round,\r\n\t\tuint256 indexed tagNumber,\r\n\t\taddress indexed user,\r\n\t\tuint256 finishTime\t\r\n\t);\r\n\t\r\n\tevent onPutShield (\r\n\t\tuint256 indexed round,\r\n\t\tuint256 indexed tagNumber,\r\n\t\taddress indexed user,\r\n\t\tuint256 nShield\t\r\n\t);\r\n\t\r\n\tevent onSetSupportersShare (\r\n\t\tuint256 indexed round,\r\n\t\tuint256 indexed tagNumber,\r\n\t\taddress indexed user,\t\r\n\t\tuint256 share\t\t\t\r\n\t);\r\n\t\r\n\tevent onHasAWinner (\r\n\t\tuint256 indexed round,\r\n\t\tuint256 end,\r\n\t\tuint256 potWon,\r\n\t\tuint256[] winners,\r\n\t\tuint256 nWinners\r\n\t);\r\n\t\r\n\tevent onGameStart (\r\n\t\tuint256 activeRound,\r\n\t\tuint256 newRegisterRound\r\n\t);\r\n\t\r\n\tevent onCloseRound (\r\n\t\tuint256 indexed round,\r\n\t\tuint256 potWon,\r\n\t\tuint256 potTransferred,\r\n\t\tuint256 nextStart\t\r\n\t);\r\n\t\r\n\tevent onQuickCloseRound (\r\n\t\tuint256 indexed round,\r\n\t\tuint256 potTransferred,\t\t\t\t\r\n\t\tuint256 nextStart\t\t\t\r\n\t);\r\n\t\r\n\tevent onClaimSupporterWinning (\r\n\t\tuint256 round,\r\n\t\tuint256 winner,\r\n\t\taddress supporter,\r\n\t\tuint256 ethClaim,\r\n\t\tuint256 nShares,\r\n\t    uint256 supportersShare,\r\n\t\tuint256 potWon,\r\n\t\tuint256 nWinners\r\n\t);\r\n\t\r\n\tevent onWithdraw (\r\n\t\taddress indexed user,\r\n\t\tuint256 amount\t\t\r\n\t);\r\n\r\n\tevent onClaimShares (\r\n\t\tuint256 indexed round,\t\r\n\t\taddress indexed user,\r\n\t\tuint256 shares2Claim,\r\n\t\tuint256 ethClaimed,\r\n\t\tuint256 totShares,\r\n\t\tuint256 sharesClaimed\r\n\t);\r\n\t\r\n\tevent onAdminWithdraw (\r\n\t\taddress indexed user,\r\n\t\tuint256 amount\t\t\t\r\n\t);\t\t\r\n\t\r\n}\r\n\r\n\r\n\r\n\r\n",
  "sourcePath": "/home/charlene/devmar/driznew/contracts/Marethon.sol",
  "compiler": {
    "name": "solc",
    "version": "0.4.24+commit.e67f0147.Emscripten.clang"
  },
  "schemaVersion": "2.0.1",
  "updatedAt": "2018-11-27T10:37:52.592Z"
}