{
  "contractName": "SkipListBoard",
  "abi": [
    {
      "constant": false,
      "inputs": [
        {
          "name": "skip",
          "type": "SkipListBoard.SkipList storage"
        },
        {
          "name": "maxLevel",
          "type": "uint256"
        },
        {
          "name": "p",
          "type": "uint256"
        },
        {
          "name": "ascending",
          "type": "bool"
        }
      ],
      "name": "init",
      "outputs": [],
      "payable": false,
      "stateMutability": "nonpayable",
      "type": "function"
    },
    {
      "constant": false,
      "inputs": [
        {
          "name": "skip",
          "type": "SkipListBoard.SkipList storage"
        },
        {
          "name": "player",
          "type": "uint256"
        },
        {
          "name": "score",
          "type": "uint256"
        }
      ],
      "name": "update",
      "outputs": [],
      "payable": false,
      "stateMutability": "nonpayable",
      "type": "function"
    },
    {
      "constant": true,
      "inputs": [
        {
          "name": "skip",
          "type": "SkipListBoard.SkipList storage"
        },
        {
          "name": "n",
          "type": "uint256"
        }
      ],
      "name": "getTopN",
      "outputs": [
        {
          "name": "",
          "type": "uint256[]"
        }
      ],
      "payable": false,
      "stateMutability": "view",
      "type": "function"
    },
    {
      "constant": true,
      "inputs": [
        {
          "name": "skip",
          "type": "SkipListBoard.SkipList storage"
        },
        {
          "name": "n",
          "type": "uint256"
        }
      ],
      "name": "getBottomN",
      "outputs": [
        {
          "name": "",
          "type": "uint256[]"
        }
      ],
      "payable": false,
      "stateMutability": "view",
      "type": "function"
    },
    {
      "constant": true,
      "inputs": [
        {
          "name": "skip",
          "type": "SkipListBoard.SkipList storage"
        },
        {
          "name": "player",
          "type": "uint256"
        },
        {
          "name": "n",
          "type": "uint256"
        }
      ],
      "name": "getRightN",
      "outputs": [
        {
          "name": "",
          "type": "uint256[]"
        }
      ],
      "payable": false,
      "stateMutability": "view",
      "type": "function"
    },
    {
      "constant": true,
      "inputs": [
        {
          "name": "skip",
          "type": "SkipListBoard.SkipList storage"
        },
        {
          "name": "player",
          "type": "uint256"
        },
        {
          "name": "n",
          "type": "uint256"
        }
      ],
      "name": "getLeftN",
      "outputs": [
        {
          "name": "",
          "type": "uint256[]"
        }
      ],
      "payable": false,
      "stateMutability": "view",
      "type": "function"
    },
    {
      "constant": true,
      "inputs": [
        {
          "name": "skip",
          "type": "SkipListBoard.SkipList storage"
        }
      ],
      "name": "getList",
      "outputs": [
        {
          "name": "",
          "type": "uint256[]"
        }
      ],
      "payable": false,
      "stateMutability": "view",
      "type": "function"
    },
    {
      "constant": true,
      "inputs": [
        {
          "name": "skip",
          "type": "SkipListBoard.SkipList storage"
        }
      ],
      "name": "getBottom",
      "outputs": [
        {
          "name": "",
          "type": "uint256"
        }
      ],
      "payable": false,
      "stateMutability": "view",
      "type": "function"
    }
  ],
  "bytecode": "0x610df4610030600b82828239805160001a6073146000811461002057610022565bfe5b5030600052607381538281f30073000000000000000000000000000000000000000030146080604052600436106100a45763ffffffff7c0100000000000000000000000000000000000000000000000000000000600035041663320f2fb581146100a9578063329c71d11461010a57806364fdf5dd1461011557806381d4d22314610123578063852d74501461013457806396f2ac0014610151578063dd346b101461015f578063ead9681814610184575b600080fd5b6100ba6004356024356044356101a2565b60408051602080825283518183015283519192839290830191858101910280838360005b838110156100f65781810151838201526020016100de565b505050509050019250505060405180910390f35b6100ba60043561026c565b6100ba60043560243561034e565b6100ba600435602435604435610404565b61013f6004356104ba565b60408051918252519081900360200190f35b6100ba6004356024356104d4565b81801561016b57600080fd5b506101826004356024356044356064351515610581565b005b81801561019057600080fd5b506101826004356024356044356105c0565b606080600080846040519080825280602002602001820160405280156101d2578160200160208202803883390190505b506000878152600589016020908152604080832054835260068b01909152902090935060010154915081151561020a57829350610262565b5060005b8160011415801561021e57508481105b1561025e5781838281518110151561023257fe5b60209081029091018101919091526000838152600689019091526040902060010154915060010161020e565b8293505b5050509392505050565b606080600080600085600201548660030154016040519080825280602002602001820160405280156102a8578160200160208202803883390190505b50935060009250600191505b85600201546001018210156103445783516001840193839186919081106102d757fe5b602090810290910181019190915260008381526006880190915260408120015490505b80821461033957835160018401938291869190811061031557fe5b602090810291909101810191909152600091825260068701905260409020546102fa565b6001909101906102b4565b5091949350505050565b6060806000808460405190808252806020026020018201604052801561037e578160200160208202803883390190505b506001600090815260068801602052604090205490935091508115156103a6578293506103fb565b5060005b816001141580156103ba57508481105b156103f7578183828151811015156103ce57fe5b6020908102919091018101919091526000928352600687019052604090912054906001016103aa565b8293505b50505092915050565b60608060008084604051908082528060200260200182016040528015610434578160200160208202803883390190505b506000878152600589016020908152604080832054835260068b01909152902054909350915081151561046957829350610262565b5060005b8160011415801561047d57508481105b1561025e5781838281518110151561049157fe5b60209081029190910181019190915260009283526006880190526040909120549060010161046d565b600160008181526006929092016020526040909120015490565b60608060008084604051908082528060200260200182016040528015610504578160200160208202803883390190505b506001600081815260068901602052604090209194500154915081151561052d578293506103fb565b5060005b8160011415801561054157508481105b156103f75781838281518110151561055557fe5b602090810290910181019190915260008381526006880190915260409020600101549150600101610531565b91835560018084019190915560028301819055600081815260068401602052604090208181558101556004909101805460ff1916911515919091179055565b6105ca83836105db565b6105d5838383610777565b50505050565b60006105e5610cfd565b6000838152600585016020526040812054156107705760008481526005860160209081526040808320548084526006890190925291829020825180840193849052919550909160029082845b8154815260200190600101908083116106315750505050509150600190505b81511515806106625750602082015115155b156106f5576020828101805184516000908152600689019093526040808420600101919091558451915183528083209190915584825281206106a391610d18565b6001929092016000818152600686016020526040908190208151808301928390529294929160029082845b8154815260200190600101908083116106ce57505050505091508080600101915050610650565b6001856002015411801561071c575060028501546000818152600687016020526040902054145b156107505760028501546000908152600686016020526040812061073f91610d18565b6002850180546000190190556106f5565b600385018054829003600101905560008481526005860160205260408120555b5050505050565b6000610781610d26565b60008060008061078f610cfd565b600089815260058b0160205260408120548190156107b05760009850610a88565b60028c0154633b9aca00909a028b019996508695505b6127108706156108d55760048c01546127108b028701955060ff1615610838575b600087815260068d01602052604090205486148015906108165750600087815260068d01602052604090205485115b1561083357600096875260068c01602052604090962054956107e7565b610884565b600087815260068d01602052604090205486148015906108675750600087815260068d01602052604090205485105b1561088457600096875260068c0160205260409096205495610838565b8751879087600b811061089357fe5b60209081029190910191909152600088815260068e018252604090205490890151600019880197600b81106108c457fe5b6020020152600019909601956107c6565b600196909601600090815260068c0160205260409020549589871415806108fc5750896001145b15610a83576109148c600001548d600101548c610a97565b93508b6002015484111561092a5760028c018490555b600195505b83600101861015610a5e5760208801516127108b028701955086600b811061095357fe5b6020020151885190925086600b811061096857fe5b60200201519050801561098d57600081815260068d01602052604090208590556109b5565b600086815260068d01602052604090208590558751869081600b81106109af57fe5b60200201525b81156109d657600082815260068d0160205260409020859060010155610a04565b600086815260068d01602052604090208590600101556020880151869081600b81106109fe57fe5b60200201525b602088015186600b8110610a1457fe5b60200201518352875186600b8110610a2857fe5b6020908102919091015184820152600086815260068e0190915260409020610a5290846002610d4d565b5060019095019461092f565b60008b815260058d016020526040902060016127108c0201905560038c018054850190555b600198505b50505050505050509392505050565b60015b8264174876e800824203834303844241604051602001808273ffffffffffffffffffffffffffffffffffffffff1673ffffffffffffffffffffffffffffffffffffffff166c010000000000000000000000000281526014019150506040516020818303038152906040526040518082805190602001908083835b60208310610b335780518252601f199092019160209182019101610b14565b5181516020939093036101000a6000190180199091169216919091179052604051920182900390912092505050811515610b6957fe5b0403854233604051602001808273ffffffffffffffffffffffffffffffffffffffff1673ffffffffffffffffffffffffffffffffffffffff166c010000000000000000000000000281526014019150506040516020818303038152906040526040518082805190602001908083835b60208310610bf75780518252601f199092019160209182019101610bd8565b5181516020939093036101000a6000190180199091169216919091179052604051920182900390912092505050811515610c2d57fe5b04038645038789036040516020018087815260200186815260200185815260200184815260200183815260200182815260200196505050505050506040516020818303038152906040526040518082805190602001908083835b60208310610ca65780518252601f199092019160209182019101610c87565b5181516020939093036101000a6000190180199091169216919091179052604051920182900390912092505050811515610cdc57fe5b06108015610ce957508381105b15610cf657600101610a9a565b9392505050565b60408051808201825290600290829080388339509192915050565b506000815560010160009055565b6102c060405190810160405280610d3b610d8b565b8152602001610d48610d8b565b905290565b8260028101928215610d7b579160200282015b82811115610d7b578251825591602001919060010190610d60565b50610d87929150610dab565b5090565b61016060405190810160405280600b906020820280388339509192915050565b610dc591905b80821115610d875760008155600101610db1565b905600a165627a7a72305820b8c84d90b2ce38a0b98e30345f1972175f6775053e60ccaaa996108e7d4fbbde0029",
  "source": "\npragma solidity ^0.4.24;\n\nlibrary SkipListBoard {\n    uint256 constant private MAX_LVL = 10;\t\t\t\t// Max level of skip list\n    uint256 constant private MOD_RND = 100000000000;\t// Random modulo\n\n    struct LeftNode {\t\t\t\t\t// Stores the left node info before inserting\n        uint256[MAX_LVL+1] score;\t\t// The left node score\n        uint256[MAX_LVL+1] next;\t\t// The left node's next node\n    }\n\n    struct SkipList {\t\t\t\t\t// Skip list Struct\n        uint256 maxLevel;\t\t\t\t// Skip list's max level\n        uint256 p;\t\t\t\t\t\t// Skip list's P\n        uint256 level;\t\t\t\t\t// Skip list's highest level\n        uint256 nodeCount;\t\t\t\t// Skip list's node Count\n        bool ascending;\t\t\t\t\t// Skip list' score order (ascending or descending)\n        mapping (uint256 => uint256) playerMap; // Maps a player to its specific node/score\n        mapping (uint256 => uint256[2]) nodeMap; // Maps node/score to its specfic left and right node/score. \n\t\t\t\t\t\t\t\t\t\t\t\t // 0 index is next node, 1 index is previous node\n\t\t\t\t\t\t\t\t\t\t\t\t // Node score, contains the score,player number,level\n    }\n\t\n\t/**\n\t**\t@dev  initializes the skip list\n\t**\t@param  skip - skip list to initialize\n\t**\t@param  maxLevel - maximum height/level of skip list\n\t**  @param  p - the P value for the skip list\n\t**\t@param  ascending - indicates whether the list will be sorted ascending or descending\n\t**/\n    function init(SkipList storage skip, uint256 maxLevel, uint256 p, bool ascending) public {\n        skip.maxLevel = maxLevel;\t\t// Sets the max level\n        skip.p = p;\t\t\t\t\t\t// Sets the P\n        skip.level = 1;\t\t\t\t\t// Highest level initially set to 1\n        skip.nodeMap[1][0] = 1;\t\t\t// Header score == 1, its next points to its own node\n        skip.nodeMap[1][1] = 1;\t\t\t// Header score == 1, its previous points to its own node\n        skip.ascending = ascending;\t\t// Indicate the order of skip list\n    }\n\n\t/**\n\t**\t@dev  generates a random level for the new node to be inserted\n\t**\t@param  maxLevel - maximum height/level of skip list\n\t**  @param  p - the P value of the skip list\n\t**\t@param  score - user-initiated value\n\t**\t@return  rndLevel - the generated random level\n\t**/\t\n    function random(uint256 maxLevel, uint256 p, uint256 score) internal view returns (uint256 rndLevel) {\n\t\trndLevel = 1;\n        while ((uint256(\n                keccak256(abi.encodePacked(\n                    block.timestamp - rndLevel, block.number - rndLevel, \n\t\t\t\t\t(uint256(keccak256(abi.encodePacked(block.coinbase)))) / (now) - rndLevel,\n\t\t\t\t\t(uint256(keccak256(abi.encodePacked(msg.sender)))) / (now) - rndLevel,\n\t\t\t\t\tblock.gaslimit - rndLevel,\n\t\t\t\t\tscore - rndLevel\n\t\t\t\t))\n\t\t\t\t) % MOD_RND < p\n\t\t\t) && (rndLevel < maxLevel)\n        )\n            rndLevel++;\n    }\n\n\t/**\n\t**\t@dev  inserts a new node in skip list\n\t**\t@param  skip - the skip list where new values will be inserted\n\t**  @param  player - the player number (key)\n\t**\t@param  score - the score (value == score + key)\n\t**\t@return  indicates whether new node was inserted (true) or node already in there already (false)\n\t**/\t\t\n    function insert(SkipList storage skip, uint256 player, uint256 score) internal returns (bool) {\n        if (skip.playerMap[player] != 0) {\n            return false; // Cannot insert what has already been inserted, delete first\n        }\n\n\t\t// Node value has a format score + player(9 digits) + level(4 digits)\n        LeftNode memory leftNode;\n        uint256 rightNode = skip.level;\n        score = score*1000000000 + player;\n        uint256 i = skip.level;\n        uint256 lvlScore;\n\t\t\n\t\t// Start from the top level to bottom level, look for the left nodes where the node will be inserted\n        for (rightNode=skip.level;rightNode % 10000 != 0;rightNode--) {\n            lvlScore = score*10000 + i;\n            if (skip.ascending)\n              while (skip.nodeMap[rightNode][0] != i &&  skip.nodeMap[rightNode][0] < lvlScore)\n                  rightNode = skip.nodeMap[rightNode][0];\n            else\n              while (skip.nodeMap[rightNode][0] != i &&  skip.nodeMap[rightNode][0] > lvlScore)\n                  rightNode = skip.nodeMap[rightNode][0];\n            leftNode.score[i] = rightNode;\n            leftNode.next[i--] = skip.nodeMap[rightNode][0];\n        }\n        rightNode = skip.nodeMap[++rightNode][0];\n        if (rightNode != score || score == 1) {\n\t\t\t// Generate a random level for the new node to be inserted\n            uint256 level = random(skip.maxLevel, skip.p, score);\n            uint256[2] memory insertNode;\n\n\t\t\t// Update the top level\n            if (level > skip.level) {\n                skip.level = level;\n            }\n\t\t\t// Start from the bottom level and insert the new node\n\t\t\t// between the left nodes and it's corresponding next nodes\n            for (i = 1;i < level+1;i++) {\n                lvlScore = score*10000 + i;\n                uint256 lnext = leftNode.next[i];\n                uint256 lscore = leftNode.score[i];\n\n                if (lscore != 0)\n                    skip.nodeMap[lscore][0] = lvlScore;\n                else {\n                    skip.nodeMap[i][0] = lvlScore;\n                    leftNode.score[i] = i;\n                }              \n                if (lnext != 0)\n                    skip.nodeMap[lnext][1] = lvlScore;\n                else {\n                    skip.nodeMap[i][1] = lvlScore;\n                    leftNode.next[i] = i;\n                }\n                insertNode[0] = leftNode.next[i];                \n                insertNode[1] = leftNode.score[i];\n                skip.nodeMap[lvlScore] = insertNode;\n            }\n\t\t\t// Player map stores the bottom level score, \n\t\t\t// Account additonal nodes and is equal to the new node's level\n            skip.playerMap[player] = score*10000 + 1;\n            skip.nodeCount += level;\n        }\n        return true;\n    }\n\n\t/**\n\t**\t@dev  removes a node in skip list\n\t**\t@param  skip - the skip list where node will be deleted\n\t**  @param  player - the player number to be deleted (key)\n\t**/\t\t\t\n    function remove(SkipList storage skip, uint256 player) internal {\n\t\t// Access the node to be removed directly from the player map\n        if (skip.playerMap[player] != 0) {\n            uint256 lvlScore = skip.playerMap[player];\n            uint256[2] memory remNode = skip.nodeMap[lvlScore];\n            uint256 remLvl = 1;\n\t\t\t\n\t\t\t// Update the nexts and previouses after the node is gone\n\t\t\t// Remove the node in the map\n            while (remNode[0] != 0 || remNode[1] != 0) {\n                skip.nodeMap[remNode[0]][1] = remNode[1];\n                skip.nodeMap[remNode[1]][0] = remNode[0];\n                delete skip.nodeMap[lvlScore];\n                remNode = skip.nodeMap[++lvlScore];\n                remLvl++;\n            }\n\t\t\t// If there's no node in the top levels, remove header nodes and update the level\n            while (skip.level > 1 && skip.nodeMap[skip.level][0] == skip.level) {\n\t\t\t\tdelete skip.nodeMap[skip.level];\n                skip.level -= 1;\n\t\t\t}\n\t\t\t// Update the node count and delete entry in the player map \n            skip.nodeCount -= (remLvl - 1);\n            skip.playerMap[player] = 0;\n        }\n    }\n\n\t/**\n\t**\t@dev  updates a score, delete the old score and insert the new score\n\t**\t@param  skip - the skip list where values will be updated\n\t**  @param  player - the player number (key)\n\t**\t@param  score - the score (value == score + key)\n\t**/\t\t\t\n    function update(SkipList storage skip, uint256 player, uint256 score) public {\n        remove(skip, player);\n        insert(skip, player, score);\n    }\n\n\t/**\n\t**\t@dev  \tgets the top N (i.e. first entry up to N entries above) entries in the skip list\n\t**\t@param  skip - the skip list to be searched\n\t**  @param  n - the number of entries to retrieve\n\t**  @return  the list of entries from first up to Nth entries\n\t**/\t\t\t\t\n    function getTopN(SkipList storage skip, uint256 n) public view returns (uint256[]){\n        uint256[] memory scores = new uint256[](n);\n        uint256 nodeScore = skip.nodeMap[1][0];\n\t\tif (nodeScore == 0) return scores;\n        uint256 i = 0;\n\n        while (nodeScore != 1 && i < n) {\n            scores[i] = nodeScore;\n            nodeScore = skip.nodeMap[nodeScore][0];\n            i++;\n        }\n        return scores;\n    }\n\n\t/**\n\t**\t@dev  \tgets the last N (i.e. last entry up to N entries below) entries in the skip list\n\t**\t@param  skip - the skip list to be searched\n\t**  @param  n - the number of entries to retrieve\n\t**  @return  the list of entries from last up to Nth entries\n\t**/\t\t\t\t\n    function getBottomN(SkipList storage skip, uint256 n) public view returns (uint256[]){\n        uint256[] memory scores = new uint256[](n);\n        uint256 nodeScore = skip.nodeMap[1][1];\n\t\tif (nodeScore == 0) return scores;\t\t\n        uint256 i = 0;\n\n        while (nodeScore != 1 && i < n) {\n            scores[i] = nodeScore;\n            nodeScore = skip.nodeMap[nodeScore][1];\n            i++;\n        }\n        return scores;\n    }\n\n\t/**\n\t**\t@dev  \tgets N nodes/entries from the right of a player's node\n\t**\t@param  skip - the skip list to be searched\n\t**\t@param  player - the start node where entries will be retrieved\n\t**  @param  n - the number of entries to retrieve\n\t**  @return  the list of N entries from the right of a player's node\n\t**/\t\t\t\t\t\n    function getRightN (SkipList storage skip, uint256 player, uint256 n) public view returns (uint256[]) {\n        uint256[] memory scores = new uint256[](n);\n        uint256 nodeScore = skip.nodeMap[skip.playerMap[player]][0];\n\t\tif (nodeScore == 0) return scores;\t\t\n        uint256 i = 0;\n\n        while (nodeScore != 1 && i < n) {\n            scores[i] = nodeScore;\n            nodeScore = skip.nodeMap[nodeScore][0];\n            i++;\n        }\n        return scores;\n    }\n\t\n\t/**\n\t**\t@dev  \tgets N nodes/entries from the left of a player's node\n\t**\t@param  skip - the skip list to be searched\n\t**\t@param  player - the start node where entries will be retrieved\n\t**  @param  n - the number of entries to retrieve\n\t**  @return  the list of N entries from the left of a player's node\n\t**/\t\t\t\t\t\n    function getLeftN (SkipList storage skip, uint256 player, uint256 n) public view returns (uint256[]) {\n        uint256[] memory scores = new uint256[](n);\n        uint256 nodeScore = skip.nodeMap[skip.playerMap[player]][1];\n\t\tif (nodeScore == 0) return scores;\t\t\n        uint256 i = 0;\n\n        while (nodeScore != 1 && i < n) {\n            scores[i] = nodeScore;\n            nodeScore = skip.nodeMap[nodeScore][1];\n            i++;\n        }\n        return scores;\n    }\n\n\t/**\n\t**\t@dev  \tgets list nodes/entries of the skip list data structure\n\t**\t@param  skip - the skip list to be searched\n\t**  @return  the list of all nodes/entries of the skip list data structure\n\t**/\t\t\t\t\t\t\n    function getList (SkipList storage skip) public view returns (uint256[]) {\n        uint256[] memory scores = new uint256[](skip.nodeCount+skip.level);\n        uint256 j = 0;\n\n        for (uint256 i = 1; i < skip.level + 1;i++) {\n            scores[j++] = i;\n            uint256 nodeScore = skip.nodeMap[i][0];\n            while (nodeScore != i) {\n                scores[j++] = nodeScore;\n                nodeScore = skip.nodeMap[nodeScore][0];\n            }\n        }\n        return scores;\n    }\n\n\t/**\n\t**\t@dev  \tgets the bottom entry of the skip list\n\t**\t@param  skip - the skip list to be searched\n\t**\t@return  the bottom entry (score)\n\t**/\t\t\t\t\t\t\n    function getBottom(SkipList storage skip) public view returns (uint256){\n        return skip.nodeMap[1][1];\n    }\n}\n\n",
  "sourcePath": "/home/charlene/devmar/driznew/contracts/SkipListBoard.sol",
  "compiler": {
    "name": "solc",
    "version": "0.4.24+commit.e67f0147.Emscripten.clang"
  },
  "schemaVersion": "2.0.1",
  "updatedAt": "2018-11-27T10:37:52.583Z"
}